{
    "contractName": "CrowdsaleDragonFruit",
    "abi": [
        {
            "inputs": [
                {
                    "internalType": "uint256",
                    "name": "rate",
                    "type": "uint256"
                },
                {
                    "internalType": "address payable",
                    "name": "wallet",
                    "type": "address"
                },
                {
                    "internalType": "contract ERC20Mocha",
                    "name": "token",
                    "type": "address"
                },
                {
                    "internalType": "bool",
                    "name": "_isPausable",
                    "type": "bool"
                }
            ],
            "payable": false,
            "stateMutability": "nonpayable",
            "type": "constructor"
        },
        {
            "anonymous": false,
            "inputs": [
                {
                    "indexed": false,
                    "internalType": "address",
                    "name": "account",
                    "type": "address"
                }
            ],
            "name": "Paused",
            "type": "event"
        },
        {
            "anonymous": false,
            "inputs": [
                {
                    "indexed": true,
                    "internalType": "address",
                    "name": "account",
                    "type": "address"
                }
            ],
            "name": "PauserAdded",
            "type": "event"
        },
        {
            "anonymous": false,
            "inputs": [
                {
                    "indexed": true,
                    "internalType": "address",
                    "name": "account",
                    "type": "address"
                }
            ],
            "name": "PauserRemoved",
            "type": "event"
        },
        {
            "anonymous": false,
            "inputs": [
                {
                    "indexed": true,
                    "internalType": "address",
                    "name": "purchaser",
                    "type": "address"
                },
                {
                    "indexed": true,
                    "internalType": "address",
                    "name": "beneficiary",
                    "type": "address"
                },
                {
                    "indexed": false,
                    "internalType": "uint256",
                    "name": "value",
                    "type": "uint256"
                },
                {
                    "indexed": false,
                    "internalType": "uint256",
                    "name": "amount",
                    "type": "uint256"
                }
            ],
            "name": "TokensPurchased",
            "type": "event"
        },
        {
            "anonymous": false,
            "inputs": [
                {
                    "indexed": false,
                    "internalType": "address",
                    "name": "account",
                    "type": "address"
                }
            ],
            "name": "Unpaused",
            "type": "event"
        },
        {
            "payable": true,
            "stateMutability": "payable",
            "type": "fallback"
        },
        {
            "constant": false,
            "inputs": [
                {
                    "internalType": "address",
                    "name": "account",
                    "type": "address"
                }
            ],
            "name": "addPauser",
            "outputs": [],
            "payable": false,
            "stateMutability": "nonpayable",
            "type": "function"
        },
        {
            "constant": false,
            "inputs": [
                {
                    "internalType": "address",
                    "name": "beneficiary",
                    "type": "address"
                }
            ],
            "name": "buyTokens",
            "outputs": [],
            "payable": true,
            "stateMutability": "payable",
            "type": "function"
        },
        {
            "constant": true,
            "inputs": [
                {
                    "internalType": "address",
                    "name": "account",
                    "type": "address"
                }
            ],
            "name": "isPauser",
            "outputs": [
                {
                    "internalType": "bool",
                    "name": "",
                    "type": "bool"
                }
            ],
            "payable": false,
            "stateMutability": "view",
            "type": "function"
        },
        {
            "constant": false,
            "inputs": [],
            "name": "pause",
            "outputs": [],
            "payable": false,
            "stateMutability": "nonpayable",
            "type": "function"
        },
        {
            "constant": true,
            "inputs": [],
            "name": "paused",
            "outputs": [
                {
                    "internalType": "bool",
                    "name": "",
                    "type": "bool"
                }
            ],
            "payable": false,
            "stateMutability": "view",
            "type": "function"
        },
        {
            "constant": true,
            "inputs": [],
            "name": "rate",
            "outputs": [
                {
                    "internalType": "uint256",
                    "name": "",
                    "type": "uint256"
                }
            ],
            "payable": false,
            "stateMutability": "view",
            "type": "function"
        },
        {
            "constant": false,
            "inputs": [],
            "name": "renouncePauser",
            "outputs": [],
            "payable": false,
            "stateMutability": "nonpayable",
            "type": "function"
        },
        {
            "constant": true,
            "inputs": [],
            "name": "token",
            "outputs": [
                {
                    "internalType": "contract IERC20",
                    "name": "",
                    "type": "address"
                }
            ],
            "payable": false,
            "stateMutability": "view",
            "type": "function"
        },
        {
            "constant": false,
            "inputs": [],
            "name": "unpause",
            "outputs": [],
            "payable": false,
            "stateMutability": "nonpayable",
            "type": "function"
        },
        {
            "constant": true,
            "inputs": [],
            "name": "wallet",
            "outputs": [
                {
                    "internalType": "address payable",
                    "name": "",
                    "type": "address"
                }
            ],
            "payable": false,
            "stateMutability": "view",
            "type": "function"
        },
        {
            "constant": true,
            "inputs": [],
            "name": "weiRaised",
            "outputs": [
                {
                    "internalType": "uint256",
                    "name": "",
                    "type": "uint256"
                }
            ],
            "payable": false,
            "stateMutability": "view",
            "type": "function"
        }
    ],
    "bytecode": "0x60806040523480156200001157600080fd5b506040516200120f3803806200120f833981810160405260808110156200003757600080fd5b8101908080519060200190929190805190602001909291908051906020019092919080519060200190929190505050838383600160008190555060008311620000e8576040517f08c379a00000000000000000000000000000000000000000000000000000000081526004018080602001828103825260148152602001807f43726f776473616c653a2072617465206973203000000000000000000000000081525060200191505060405180910390fd5b600073ffffffffffffffffffffffffffffffffffffffff168273ffffffffffffffffffffffffffffffffffffffff16141562000170576040517f08c379a0000000000000000000000000000000000000000000000000000000008152600401808060200182810382526025815260200180620011ea6025913960400191505060405180910390fd5b600073ffffffffffffffffffffffffffffffffffffffff168173ffffffffffffffffffffffffffffffffffffffff161415620001f8576040517f08c379a0000000000000000000000000000000000000000000000000000000008152600401808060200182810382526024815260200180620011c66024913960400191505060405180910390fd5b8260038190555081600260006101000a81548173ffffffffffffffffffffffffffffffffffffffff021916908373ffffffffffffffffffffffffffffffffffffffff16021790555080600160006101000a81548173ffffffffffffffffffffffffffffffffffffffff021916908373ffffffffffffffffffffffffffffffffffffffff1602179055505050506200029533620002cb60201b60201c565b6000600660016101000a81548160ff021916908315150217905550620002c1816200032c60201b60201c565b5050505062000492565b620002e68160056200034960201b62000c191790919060201c565b8073ffffffffffffffffffffffffffffffffffffffff167f6719d08c1888103bea251a4ed56406bd0c3e69723c8a1686e017e7bbe159b6f860405160405180910390a250565b80600660006101000a81548160ff02191690831515021790555050565b600073ffffffffffffffffffffffffffffffffffffffff168173ffffffffffffffffffffffffffffffffffffffff1614156200038457600080fd5b620003968282620003ff60201b60201c565b15620003a157600080fd5b60018260000160008373ffffffffffffffffffffffffffffffffffffffff1673ffffffffffffffffffffffffffffffffffffffff16815260200190815260200160002060006101000a81548160ff0219169083151502179055505050565b60008073ffffffffffffffffffffffffffffffffffffffff168273ffffffffffffffffffffffffffffffffffffffff1614156200043b57600080fd5b8260000160008373ffffffffffffffffffffffffffffffffffffffff1673ffffffffffffffffffffffffffffffffffffffff16815260200190815260200160002060009054906101000a900460ff16905092915050565b610d2480620004a26000396000f3fe60806040526004361061009c5760003560e01c80635c975abb116100645780635c975abb146101d45780636ef8d66d1461020357806382dc1ec41461021a5780638456cb591461026b578063ec8ac4d814610282578063fc0c546a146102c65761009c565b80632c4e722e146100a75780633f4ba83a146100d25780634042b66f146100e957806346fbf68e14610114578063521eb2731461017d575b6100a53361031d565b005b3480156100b357600080fd5b506100bc61047a565b6040518082815260200191505060405180910390f35b3480156100de57600080fd5b506100e7610484565b005b3480156100f557600080fd5b506100fe610548565b6040518082815260200191505060405180910390f35b34801561012057600080fd5b506101636004803603602081101561013757600080fd5b81019080803573ffffffffffffffffffffffffffffffffffffffff169060200190929190505050610552565b604051808215151515815260200191505060405180910390f35b34801561018957600080fd5b5061019261056f565b604051808273ffffffffffffffffffffffffffffffffffffffff1673ffffffffffffffffffffffffffffffffffffffff16815260200191505060405180910390f35b3480156101e057600080fd5b506101e9610599565b604051808215151515815260200191505060405180910390f35b34801561020f57600080fd5b506102186105b0565b005b34801561022657600080fd5b506102696004803603602081101561023d57600080fd5b81019080803573ffffffffffffffffffffffffffffffffffffffff1690602001909291905050506105bb565b005b34801561027757600080fd5b506102806105d9565b005b6102c46004803603602081101561029857600080fd5b81019080803573ffffffffffffffffffffffffffffffffffffffff16906020019092919050505061031d565b005b3480156102d257600080fd5b506102db61069e565b604051808273ffffffffffffffffffffffffffffffffffffffff1673ffffffffffffffffffffffffffffffffffffffff16815260200191505060405180910390f35b60016000808282540192505081905550600080549050600034905061034283826106c8565b600061034d826106f0565b90506103648260045461070e90919063ffffffff16565b600481905550610374848261072d565b8373ffffffffffffffffffffffffffffffffffffffff163373ffffffffffffffffffffffffffffffffffffffff167f6faf93231a456e552dbc9961f58d9713ee4f2e69d15f1975b050ef0911053a7b8484604051808381526020018281526020019250505060405180910390a36103eb848361073b565b6103f361073f565b6103fd84836107aa565b50506000548114610476576040517f08c379a000000000000000000000000000000000000000000000000000000000815260040180806020018281038252601f8152602001807f5265656e7472616e637947756172643a207265656e7472616e742063616c6c0081525060200191505060405180910390fd5b5050565b6000600354905090565b61048d33610552565b61049657600080fd5b600660019054906101000a900460ff166104af57600080fd5b600660009054906101000a900460ff166104c857600080fd5b6000600660016101000a81548160ff0219169083151502179055507f5db9ee0a495bf2e6ff9c91a7834c1ba4fdd244a5e8aa4e537bd38aeae4b073aa33604051808273ffffffffffffffffffffffffffffffffffffffff1673ffffffffffffffffffffffffffffffffffffffff16815260200191505060405180910390a1565b6000600454905090565b60006105688260056107ae90919063ffffffff16565b9050919050565b6000600260009054906101000a900473ffffffffffffffffffffffffffffffffffffffff16905090565b6000600660019054906101000a900460ff16905090565b6105b933610840565b565b6105c433610552565b6105cd57600080fd5b6105d68161089a565b50565b6105e233610552565b6105eb57600080fd5b600660019054906101000a900460ff161561060557600080fd5b600660009054906101000a900460ff1661061e57600080fd5b6001600660016101000a81548160ff0219169083151502179055507f62e78cea01bee320cd4e420270b5ea74000d11b0c9f74754ebdbfc544b05a25833604051808273ffffffffffffffffffffffffffffffffffffffff1673ffffffffffffffffffffffffffffffffffffffff16815260200191505060405180910390a1565b6000600160009054906101000a900473ffffffffffffffffffffffffffffffffffffffff16905090565b600660019054906101000a900460ff16156106e257600080fd5b6106ec82826108f4565b5050565b6000610707600354836109f590919063ffffffff16565b9050919050565b60008082840190508381101561072357600080fd5b8091505092915050565b6107378282610a2f565b5050565b5050565b600260009054906101000a900473ffffffffffffffffffffffffffffffffffffffff1673ffffffffffffffffffffffffffffffffffffffff166108fc349081150290604051600060405180830381858888f193505050501580156107a7573d6000803e3d6000fd5b50565b5050565b60008073ffffffffffffffffffffffffffffffffffffffff168273ffffffffffffffffffffffffffffffffffffffff1614156107e957600080fd5b8260000160008373ffffffffffffffffffffffffffffffffffffffff1673ffffffffffffffffffffffffffffffffffffffff16815260200190815260200160002060009054906101000a900460ff16905092915050565b610854816005610b6e90919063ffffffff16565b8073ffffffffffffffffffffffffffffffffffffffff167fcd265ebaf09df2871cc7bd4133404a235ba12eff2041bb89d9c714a2621c7c7e60405160405180910390a250565b6108ae816005610c1990919063ffffffff16565b8073ffffffffffffffffffffffffffffffffffffffff167f6719d08c1888103bea251a4ed56406bd0c3e69723c8a1686e017e7bbe159b6f860405160405180910390a250565b600073ffffffffffffffffffffffffffffffffffffffff168273ffffffffffffffffffffffffffffffffffffffff16141561097a576040517f08c379a000000000000000000000000000000000000000000000000000000000815260040180806020018281038252602a815260200180610cc6602a913960400191505060405180910390fd5b60008114156109f1576040517f08c379a00000000000000000000000000000000000000000000000000000000081526004018080602001828103825260198152602001807f43726f776473616c653a20776569416d6f756e7420697320300000000000000081525060200191505060405180910390fd5b5050565b600080831415610a085760009050610a29565b6000828402905082848281610a1957fe5b0414610a2457600080fd5b809150505b92915050565b610a3761069e565b73ffffffffffffffffffffffffffffffffffffffff166340c10f1983836040518363ffffffff1660e01b8152600401808373ffffffffffffffffffffffffffffffffffffffff1673ffffffffffffffffffffffffffffffffffffffff16815260200182815260200192505050602060405180830381600087803b158015610abd57600080fd5b505af1158015610ad1573d6000803e3d6000fd5b505050506040513d6020811015610ae757600080fd5b8101908080519060200190929190505050610b6a576040517f08c379a000000000000000000000000000000000000000000000000000000000815260040180806020018281038252601f8152602001807f4d696e74656443726f776473616c653a206d696e74696e67206661696c65640081525060200191505060405180910390fd5b5050565b600073ffffffffffffffffffffffffffffffffffffffff168173ffffffffffffffffffffffffffffffffffffffff161415610ba857600080fd5b610bb282826107ae565b610bbb57600080fd5b60008260000160008373ffffffffffffffffffffffffffffffffffffffff1673ffffffffffffffffffffffffffffffffffffffff16815260200190815260200160002060006101000a81548160ff0219169083151502179055505050565b600073ffffffffffffffffffffffffffffffffffffffff168173ffffffffffffffffffffffffffffffffffffffff161415610c5357600080fd5b610c5d82826107ae565b15610c6757600080fd5b60018260000160008373ffffffffffffffffffffffffffffffffffffffff1673ffffffffffffffffffffffffffffffffffffffff16815260200190815260200160002060006101000a81548160ff021916908315150217905550505056fe43726f776473616c653a2062656e656669636961727920697320746865207a65726f2061646472657373a265627a7a72315820f0eefd5bc4fec10116f2ded5a315c04974db5868481d5916d63c4acfbf19c87d64736f6c6343000510003243726f776473616c653a20746f6b656e20697320746865207a65726f206164647265737343726f776473616c653a2077616c6c657420697320746865207a65726f2061646472657373",
    "source": "pragma solidity ^0.5.7;\r\n\r\n/**\r\n * @title SafeMath\r\n * @dev Math operations with safety checks that revert on error\r\n */\r\nlibrary SafeMath {\r\n    \r\n    int256 constant private INT256_MIN = -2**255;\r\n\r\n    /**\r\n    * @dev Multiplies two unsigned integers, reverts on overflow.\r\n    */\r\n    function mul(uint256 a, uint256 b) internal pure returns (uint256) {\r\n        // Gas optimization: this is cheaper than requiring 'a' not being zero, but the\r\n        // benefit is lost if 'b' is also tested.\r\n        // See: https://github.com/OpenZeppelin/openzeppelin-solidity/pull/522\r\n        if (a == 0) {\r\n            return 0;\r\n        }\r\n\r\n        uint256 c = a * b;\r\n        require(c / a == b);\r\n\r\n        return c;\r\n    }\r\n\r\n    /**\r\n    * @dev Multiplies two signed integers, reverts on overflow.\r\n    */\r\n    function mul(int256 a, int256 b) internal pure returns (int256) {\r\n        // Gas optimization: this is cheaper than requiring 'a' not being zero, but the\r\n        // benefit is lost if 'b' is also tested.\r\n        // See: https://github.com/OpenZeppelin/openzeppelin-solidity/pull/522\r\n        if (a == 0) {\r\n            return 0;\r\n        }\r\n\r\n        require(!(a == -1 && b == INT256_MIN)); // This is the only case of overflow not detected by the check below\r\n\r\n        int256 c = a * b;\r\n        require(c / a == b);\r\n\r\n        return c;\r\n    }\r\n\r\n    /**\r\n    * @dev Integer division of two unsigned integers truncating the quotient, reverts on division by zero.\r\n    */\r\n    function div(uint256 a, uint256 b) internal pure returns (uint256) {\r\n        // Solidity only automatically asserts when dividing by 0\r\n        require(b > 0);\r\n        uint256 c = a / b;\r\n        // assert(a == b * c + a % b); // There is no case in which this doesn't hold\r\n\r\n        return c;\r\n    }\r\n\r\n    /**\r\n    * @dev Integer division of two signed integers truncating the quotient, reverts on division by zero.\r\n    */\r\n    function div(int256 a, int256 b) internal pure returns (int256) {\r\n        require(b != 0); // Solidity only automatically asserts when dividing by 0\r\n        require(!(b == -1 && a == INT256_MIN)); // This is the only case of overflow\r\n\r\n        int256 c = a / b;\r\n\r\n        return c;\r\n    }\r\n\r\n    /**\r\n    * @dev Subtracts two unsigned integers, reverts on overflow (i.e. if subtrahend is greater than minuend).\r\n    */\r\n    function sub(uint256 a, uint256 b) internal pure returns (uint256) {\r\n        require(b <= a);\r\n        uint256 c = a - b;\r\n\r\n        return c;\r\n    }\r\n\r\n    /**\r\n    * @dev Subtracts two signed integers, reverts on overflow.\r\n    */\r\n    function sub(int256 a, int256 b) internal pure returns (int256) {\r\n        int256 c = a - b;\r\n        require((b >= 0 && c <= a) || (b < 0 && c > a));\r\n\r\n        return c;\r\n    }\r\n\r\n    /**\r\n    * @dev Adds two unsigned integers, reverts on overflow.\r\n    */\r\n    function add(uint256 a, uint256 b) internal pure returns (uint256) {\r\n        uint256 c = a + b;\r\n        require(c >= a);\r\n\r\n        return c;\r\n    }\r\n\r\n    /**\r\n    * @dev Adds two signed integers, reverts on overflow.\r\n    */\r\n    function add(int256 a, int256 b) internal pure returns (int256) {\r\n        int256 c = a + b;\r\n        require((b >= 0 && c >= a) || (b < 0 && c < a));\r\n\r\n        return c;\r\n    }\r\n\r\n    /**\r\n    * @dev Divides two unsigned integers and returns the remainder (unsigned integer modulo),\r\n    * reverts when dividing by zero.\r\n    */\r\n    function mod(uint256 a, uint256 b) internal pure returns (uint256) {\r\n        require(b != 0);\r\n        return a % b;\r\n    }\r\n}\r\n\r\n\r\n/**\r\n * @title ERC20 interface\r\n * @dev see https://github.com/ethereum/EIPs/issues/20\r\n */\r\ninterface IERC20 {\r\n    function totalSupply() external view returns (uint256);\r\n\r\n    function balanceOf(address who) external view returns (uint256);\r\n\r\n    function allowance(address owner, address spender) external view returns (uint256);\r\n\r\n    function transfer(address to, uint256 value) external returns (bool);\r\n\r\n    function approve(address spender, uint256 value) external returns (bool);\r\n\r\n    function transferFrom(address from, address to, uint256 value) external returns (bool);\r\n\r\n    event Transfer(address indexed from, address indexed to, uint256 value);\r\n\r\n    event Approval(address indexed owner, address indexed spender, uint256 value);\r\n}\r\n\r\ncontract ERC20Cappuccino is IERC20 {\r\n\r\n    using SafeMath for uint256;\r\n\r\n    mapping (address => uint256) private _balances;\r\n\r\n    mapping (address => mapping (address => uint256)) private _allowed;\r\n\r\n    uint256 private _totalSupply;\r\n\r\n    /**\r\n    * @dev Public parameters to define the token\r\n    */\r\n\r\n    // Token symbol (short)\r\n    string public symbol;\r\n\r\n    // Token name (Long)\r\n    string public  name;\r\n\r\n    // Decimals (18 maximum)\r\n    uint8 public decimals;\r\n\r\n    /**\r\n    * @dev Public functions to make the contract accesible\r\n    */\r\n    constructor (address initialAccount, string memory _tokenSymbol, string memory _tokenName, uint256 initialBalance) public {\r\n\r\n        // Initialize Contract Parameters\r\n        symbol = _tokenSymbol;\r\n        name = _tokenName;\r\n        decimals = 18;  // default decimals is going to be 18 always\r\n\r\n        _mint(initialAccount, initialBalance);\r\n\r\n    }\r\n\r\n    /**\r\n    * @dev Total number of tokens in existence\r\n    */\r\n    function totalSupply() public view returns (uint256) {\r\n        return _totalSupply;\r\n    }\r\n\r\n    /**\r\n    * @dev Gets the balance of the specified address.\r\n    * @param owner The address to query the balance of.\r\n    * @return An uint256 representing the amount owned by the passed address.\r\n    */\r\n    function balanceOf(address owner) public view returns (uint256) {\r\n        return _balances[owner];\r\n    }\r\n\r\n    /**\r\n     * @dev Function to check the amount of tokens that an owner allowed to a spender.\r\n     * @param owner address The address which owns the funds.\r\n     * @param spender address The address which will spend the funds.\r\n     * @return A uint256 specifying the amount of tokens still available for the spender.\r\n     */\r\n    function allowance(address owner, address spender) public view returns (uint256) {\r\n        return _allowed[owner][spender];\r\n    }\r\n\r\n    /**\r\n    * @dev Transfer token for a specified address\r\n    * @param to The address to transfer to.\r\n    * @param value The amount to be transferred.\r\n    */\r\n    function transfer(address to, uint256 value) public returns (bool) {\r\n        _transfer(msg.sender, to, value);\r\n        return true;\r\n    }\r\n\r\n    /**\r\n     * @dev Approve the passed address to spend the specified amount of tokens on behalf of msg.sender.\r\n     * Beware that changing an allowance with this method brings the risk that someone may use both the old\r\n     * and the new allowance by unfortunate transaction ordering. One possible solution to mitigate this\r\n     * race condition is to first reduce the spender's allowance to 0 and set the desired value afterwards:\r\n     * https://github.com/ethereum/EIPs/issues/20#issuecomment-263524729\r\n     * @param spender The address which will spend the funds.\r\n     * @param value The amount of tokens to be spent.\r\n     */\r\n    function approve(address spender, uint256 value) public returns (bool) {\r\n        require(spender != address(0));\r\n\r\n        _allowed[msg.sender][spender] = value;\r\n        emit Approval(msg.sender, spender, value);\r\n        return true;\r\n    }\r\n\r\n    /**\r\n     * @dev Transfer tokens from one address to another.\r\n     * Note that while this function emits an Approval event, this is not required as per the specification,\r\n     * and other compliant implementations may not emit the event.\r\n     * @param from address The address which you want to send tokens from\r\n     * @param to address The address which you want to transfer to\r\n     * @param value uint256 the amount of tokens to be transferred\r\n     */\r\n    function transferFrom(address from, address to, uint256 value) public returns (bool) {\r\n        _allowed[from][msg.sender] = _allowed[from][msg.sender].sub(value);\r\n        _transfer(from, to, value);\r\n        emit Approval(from, msg.sender, _allowed[from][msg.sender]);\r\n        return true;\r\n    }\r\n\r\n    /**\r\n     * @dev Increase the amount of tokens that an owner allowed to a spender.\r\n     * approve should be called when allowed_[_spender] == 0. To increment\r\n     * allowed value is better to use this function to avoid 2 calls (and wait until\r\n     * the first transaction is mined)\r\n     * From MonolithDAO Token.sol\r\n     * Emits an Approval event.\r\n     * @param spender The address which will spend the funds.\r\n     * @param addedValue The amount of tokens to increase the allowance by.\r\n     */\r\n    function increaseAllowance(address spender, uint256 addedValue) public returns (bool) {\r\n        require(spender != address(0));\r\n\r\n        _allowed[msg.sender][spender] = _allowed[msg.sender][spender].add(addedValue);\r\n        emit Approval(msg.sender, spender, _allowed[msg.sender][spender]);\r\n        return true;\r\n    }\r\n\r\n    /**\r\n     * @dev Decrease the amount of tokens that an owner allowed to a spender.\r\n     * approve should be called when allowed_[_spender] == 0. To decrement\r\n     * allowed value is better to use this function to avoid 2 calls (and wait until\r\n     * the first transaction is mined)\r\n     * From MonolithDAO Token.sol\r\n     * Emits an Approval event.\r\n     * @param spender The address which will spend the funds.\r\n     * @param subtractedValue The amount of tokens to decrease the allowance by.\r\n     */\r\n    function decreaseAllowance(address spender, uint256 subtractedValue) public returns (bool) {\r\n        require(spender != address(0));\r\n\r\n        _allowed[msg.sender][spender] = _allowed[msg.sender][spender].sub(subtractedValue);\r\n        emit Approval(msg.sender, spender, _allowed[msg.sender][spender]);\r\n        return true;\r\n    }\r\n\r\n    /**\r\n    * @dev Transfer token for a specified addresses\r\n    * @param from The address to transfer from.\r\n    * @param to The address to transfer to.\r\n    * @param value The amount to be transferred.\r\n    */\r\n    function _transfer(address from, address to, uint256 value) internal {\r\n        require(to != address(0));\r\n\r\n        _balances[from] = _balances[from].sub(value);\r\n        _balances[to] = _balances[to].add(value);\r\n        emit Transfer(from, to, value);\r\n    }\r\n\r\n    /**\r\n     * @dev Internal function that mints an amount of the token and assigns it to\r\n     * an account. This encapsulates the modification of balances such that the\r\n     * proper events are emitted.\r\n     * @param account The account that will receive the created tokens.\r\n     * @param value The amount that will be created.\r\n     */\r\n    function _mint(address account, uint256 value) internal {\r\n        require(account != address(0));\r\n\r\n        _totalSupply = _totalSupply.add(value);\r\n        _balances[account] = _balances[account].add(value);\r\n        emit Transfer(address(0), account, value);\r\n    }\r\n\r\n    /**\r\n     * @dev Internal function that burns an amount of the token of a given\r\n     * account.\r\n     * @param account The account whose tokens will be burnt.\r\n     * @param value The amount that will be burnt.\r\n     */\r\n    function _burn(address account, uint256 value) internal {\r\n        require(account != address(0));\r\n\r\n        _totalSupply = _totalSupply.sub(value);\r\n        _balances[account] = _balances[account].sub(value);\r\n        emit Transfer(account, address(0), value);\r\n    }\r\n\r\n    /**\r\n     * @dev Internal function that burns an amount of the token of a given\r\n     * account, deducting from the sender's allowance for said account. Uses the\r\n     * internal burn function.\r\n     * Emits an Approval event (reflecting the reduced allowance).\r\n     * @param account The account whose tokens will be burnt.\r\n     * @param value The amount that will be burnt.\r\n     */\r\n    function _burnFrom(address account, uint256 value) internal {\r\n        _allowed[account][msg.sender] = _allowed[account][msg.sender].sub(value);\r\n        _burn(account, value);\r\n        emit Approval(account, msg.sender, _allowed[account][msg.sender]);\r\n    }\r\n\r\n}\r\n\r\n/**\r\n * @title Burnable Token\r\n * @dev Token that can be irreversibly burned (destroyed).\r\n */\r\ncontract ERC20Burnable is ERC20Cappuccino {\r\n\r\n    bool private _burnableActive;\r\n\r\n    /**\r\n     * @dev Burns a specific amount of tokens.\r\n     * @param value The amount of token to be burned.\r\n     */\r\n    function burn(uint256 value) public whenBurnableActive {\r\n        _burn(msg.sender, value);\r\n    }\r\n\r\n    /**\r\n     * @dev Burns a specific amount of tokens from the target address and decrements allowance\r\n     * @param from address The address which you want to send tokens from\r\n     * @param value uint256 The amount of token to be burned\r\n     */\r\n    function burnFrom(address from, uint256 value) public whenBurnableActive {\r\n        _burnFrom(from, value);\r\n    }\r\n\r\n    /**\r\n     * @dev Options to activate or deactivate Burn ability\r\n     */\r\n\r\n    function _setBurnableActive(bool _active) internal {\r\n        _burnableActive = _active;\r\n    }\r\n\r\n    modifier whenBurnableActive() {\r\n        require(_burnableActive);\r\n        _;\r\n    }\r\n\r\n}\r\n\r\n/**\r\n * @title Roles\r\n * @dev Library for managing addresses assigned to a Role.\r\n */\r\nlibrary Roles {\r\n    struct Role {\r\n        mapping (address => bool) bearer;\r\n    }\r\n\r\n    /**\r\n     * @dev give an account access to this role\r\n     */\r\n    function add(Role storage role, address account) internal {\r\n        require(account != address(0));\r\n        require(!has(role, account));\r\n\r\n        role.bearer[account] = true;\r\n    }\r\n\r\n    /**\r\n     * @dev remove an account's access to this role\r\n     */\r\n    function remove(Role storage role, address account) internal {\r\n        require(account != address(0));\r\n        require(has(role, account));\r\n\r\n        role.bearer[account] = false;\r\n    }\r\n\r\n    /**\r\n     * @dev check if an account has this role\r\n     * @return bool\r\n     */\r\n    function has(Role storage role, address account) internal view returns (bool) {\r\n        require(account != address(0));\r\n        return role.bearer[account];\r\n    }\r\n}\r\n\r\ncontract MinterRole {\r\n    using Roles for Roles.Role;\r\n\r\n    event MinterAdded(address indexed account);\r\n    event MinterRemoved(address indexed account);\r\n\r\n    Roles.Role private _minters;\r\n\r\n    constructor () internal {\r\n        _addMinter(msg.sender);\r\n    }\r\n\r\n    modifier onlyMinter() {\r\n        require(isMinter(msg.sender));\r\n        _;\r\n    }\r\n\r\n    function isMinter(address account) public view returns (bool) {\r\n        return _minters.has(account);\r\n    }\r\n\r\n    function addMinter(address account) public onlyMinter {\r\n        _addMinter(account);\r\n    }\r\n\r\n    function renounceMinter() public {\r\n        _removeMinter(msg.sender);\r\n    }\r\n\r\n    function _addMinter(address account) internal {\r\n        _minters.add(account);\r\n        emit MinterAdded(account);\r\n    }\r\n\r\n    function _removeMinter(address account) internal {\r\n        _minters.remove(account);\r\n        emit MinterRemoved(account);\r\n    }\r\n}\r\n\r\n/**\r\n * @title ERC20Mintable\r\n * @dev ERC20 minting logic\r\n */\r\ncontract ERC20Mintable is ERC20Cappuccino, MinterRole {\r\n\r\n    bool private _mintableActive;\r\n    /**\r\n     * @dev Function to mint tokens\r\n     * @param to The address that will receive the minted tokens.\r\n     * @param value The amount of tokens to mint.\r\n     * @return A boolean that indicates if the operation was successful.\r\n     */\r\n    function mint(address to, uint256 value) public onlyMinter whenMintableActive returns (bool) {\r\n        _mint(to, value);\r\n        return true;\r\n    }\r\n\r\n    /**\r\n     * @dev Options to activate or deactivate Burn ability\r\n     */\r\n\r\n    function _setMintableActive(bool _active) internal {\r\n        _mintableActive = _active;\r\n    }\r\n\r\n    modifier whenMintableActive() {\r\n        require(_mintableActive);\r\n        _;\r\n    }\r\n\r\n}\r\n\r\ncontract PauserRole {\r\n    using Roles for Roles.Role;\r\n\r\n    event PauserAdded(address indexed account);\r\n    event PauserRemoved(address indexed account);\r\n\r\n    Roles.Role private _pausers;\r\n\r\n    constructor () internal {\r\n        _addPauser(msg.sender);\r\n    }\r\n\r\n    modifier onlyPauser() {\r\n        require(isPauser(msg.sender));\r\n        _;\r\n    }\r\n\r\n    function isPauser(address account) public view returns (bool) {\r\n        return _pausers.has(account);\r\n    }\r\n\r\n    function addPauser(address account) public onlyPauser {\r\n        _addPauser(account);\r\n    }\r\n\r\n    function renouncePauser() public {\r\n        _removePauser(msg.sender);\r\n    }\r\n\r\n    function _addPauser(address account) internal {\r\n        _pausers.add(account);\r\n        emit PauserAdded(account);\r\n    }\r\n\r\n    function _removePauser(address account) internal {\r\n        _pausers.remove(account);\r\n        emit PauserRemoved(account);\r\n    }\r\n}\r\n\r\n/**\r\n * @title Pausable\r\n * @dev Base contract which allows children to implement an emergency stop mechanism.\r\n */\r\ncontract Pausable is PauserRole {\r\n    event Paused(address account);\r\n    event Unpaused(address account);\r\n\r\n    bool private _pausableActive;\r\n    bool private _paused;\r\n\r\n    constructor () internal {\r\n        _paused = false;\r\n    }\r\n\r\n    /**\r\n     * @return true if the contract is paused, false otherwise.\r\n     */\r\n    function paused() public view returns (bool) {\r\n        return _paused;\r\n    }\r\n\r\n    /**\r\n     * @dev Modifier to make a function callable only when the contract is not paused.\r\n     */\r\n    modifier whenNotPaused() {\r\n        require(!_paused);\r\n        _;\r\n    }\r\n\r\n    /**\r\n     * @dev Modifier to make a function callable only when the contract is paused.\r\n     */\r\n    modifier whenPaused() {\r\n        require(_paused);\r\n        _;\r\n    }\r\n\r\n    /**\r\n     * @dev called by the owner to pause, triggers stopped state\r\n     */\r\n    function pause() public onlyPauser whenNotPaused whenPausableActive {\r\n        _paused = true;\r\n        emit Paused(msg.sender);\r\n    }\r\n\r\n    /**\r\n     * @dev called by the owner to unpause, returns to normal state\r\n     */\r\n    function unpause() public onlyPauser whenPaused whenPausableActive {\r\n        _paused = false;\r\n        emit Unpaused(msg.sender);\r\n    }\r\n\r\n    /**\r\n     * @dev Options to activate or deactivate Pausable ability\r\n     */\r\n\r\n    function _setPausableActive(bool _active) internal {\r\n        _pausableActive = _active;\r\n    }\r\n\r\n    modifier whenPausableActive() {\r\n        require(_pausableActive);\r\n        _;\r\n    }\r\n\r\n}\r\n\r\n/**\r\n * @title Advanced ERC20 token\r\n *\r\n * @dev Implementation of the basic standard token plus mint and burn public functions.\r\n *\r\n * Version 2. This version delegates the minter and pauser renounce to parent-factory contract\r\n * that allows ICOs to be minter for token selling\r\n *\r\n */\r\ncontract ERC20Mocha is ERC20Cappuccino, ERC20Burnable, ERC20Mintable, Pausable {\r\n\r\n    // maximum capital, if defined > 0\r\n    uint256 private _cap;\r\n\r\n    constructor (\r\n        address initialAccount, string memory _tokenSymbol, string memory _tokenName, uint256 initialBalance, uint256 cap,\r\n        bool _burnableOption, bool _mintableOption, bool _pausableOption\r\n    ) public\r\n        ERC20Cappuccino(initialAccount, _tokenSymbol, _tokenName, initialBalance) {\r\n\r\n        // we must add customer account as the first minter\r\n        addMinter(initialAccount);\r\n\r\n        // add customer as pauser\r\n        addPauser(initialAccount);\r\n\r\n        if (cap > 0) {\r\n            _cap = cap; // maximum capitalization limited\r\n        } else {\r\n            _cap = 0; // unlimited capitalization\r\n        }\r\n\r\n        // activate or deactivate options\r\n        _setBurnableActive(_burnableOption);\r\n        _setMintableActive(_mintableOption);\r\n        _setPausableActive(_pausableOption);\r\n\r\n    }\r\n\r\n    /**\r\n     * @return the cap for the token minting.\r\n     */\r\n    function cap() public view returns (uint256) {\r\n        return _cap;\r\n    }\r\n\r\n    /**\r\n     * limit the mint to a maximum cap only if cap is defined\r\n     */\r\n    function _mint(address account, uint256 value) internal {\r\n        if (_cap > 0) {\r\n            require(totalSupply().add(value) <= _cap);\r\n        }\r\n        super._mint(account, value);\r\n    }\r\n\r\n    /**\r\n     * Pausable options\r\n     */\r\n    function transfer(address to, uint256 value) public whenNotPaused returns (bool) {\r\n        return super.transfer(to, value);\r\n    }\r\n\r\n    function transferFrom(address from,address to, uint256 value) public whenNotPaused returns (bool) {\r\n        return super.transferFrom(from, to, value);\r\n    }\r\n\r\n    function approve(address spender, uint256 value) public whenNotPaused returns (bool) {\r\n        return super.approve(spender, value);\r\n    }\r\n\r\n    function increaseAllowance(address spender, uint addedValue) public whenNotPaused returns (bool success) {\r\n        return super.increaseAllowance(spender, addedValue);\r\n    }\r\n\r\n    function decreaseAllowance(address spender, uint subtractedValue) public whenNotPaused returns (bool success) {\r\n        return super.decreaseAllowance(spender, subtractedValue);\r\n    }\r\n\r\n}\r\n\r\n/**\r\n * @dev Contract module that helps prevent reentrant calls to a function.\r\n *\r\n * Inheriting from `ReentrancyGuard` will make the {nonReentrant} modifier\r\n * available, which can be aplied to functions to make sure there are no nested\r\n * (reentrant) calls to them.\r\n *\r\n * Note that because there is a single `nonReentrant` guard, functions marked as\r\n * `nonReentrant` may not call one another. This can be worked around by making\r\n * those functions `private`, and then adding `external` `nonReentrant` entry\r\n * points to them.\r\n */\r\ncontract ReentrancyGuard {\r\n    // counter to allow mutex lock with only one SSTORE operation\r\n    uint256 private _guardCounter;\r\n\r\n    constructor () internal {\r\n        // The counter starts at one to prevent changing it from zero to a non-zero\r\n        // value, which is a more expensive operation.\r\n        _guardCounter = 1;\r\n    }\r\n\r\n    /**\r\n     * @dev Prevents a contract from calling itself, directly or indirectly.\r\n     * Calling a `nonReentrant` function from another `nonReentrant`\r\n     * function is not supported. It is possible to prevent this from happening\r\n     * by making the `nonReentrant` function external, and make it call a\r\n     * `private` function that does the actual work.\r\n     */\r\n    modifier nonReentrant() {\r\n        _guardCounter += 1;\r\n        uint256 localCounter = _guardCounter;\r\n        _;\r\n        require(localCounter == _guardCounter, \"ReentrancyGuard: reentrant call\");\r\n    }\r\n}\r\n\r\n/**\r\n * @title SafeERC20\r\n * @dev Wrappers around ERC20 operations that throw on failure (when the token\r\n * contract returns false). Tokens that return no value (and instead revert or\r\n * throw on failure) are also supported, non-reverting calls are assumed to be\r\n * successful.\r\n * To use this library you can add a `using SafeERC20 for ERC20;` statement to your contract,\r\n * which allows you to call the safe operations as `token.safeTransfer(...)`, etc.\r\n */\r\nlibrary SafeERC20 {\r\n    using SafeMath for uint256;\r\n    using Address for address;\r\n\r\n    function safeTransfer(IERC20 token, address to, uint256 value) internal {\r\n        callOptionalReturn(token, abi.encodeWithSelector(token.transfer.selector, to, value));\r\n    }\r\n\r\n    function safeTransferFrom(IERC20 token, address from, address to, uint256 value) internal {\r\n        callOptionalReturn(token, abi.encodeWithSelector(token.transferFrom.selector, from, to, value));\r\n    }\r\n\r\n    function safeApprove(IERC20 token, address spender, uint256 value) internal {\r\n        // safeApprove should only be called when setting an initial allowance,\r\n        // or when resetting it to zero. To increase and decrease it, use\r\n        // 'safeIncreaseAllowance' and 'safeDecreaseAllowance'\r\n        // solhint-disable-next-line max-line-length\r\n        require((value == 0) || (token.allowance(address(this), spender) == 0),\r\n            \"SafeERC20: approve from non-zero to non-zero allowance\"\r\n        );\r\n        callOptionalReturn(token, abi.encodeWithSelector(token.approve.selector, spender, value));\r\n    }\r\n\r\n    function safeIncreaseAllowance(IERC20 token, address spender, uint256 value) internal {\r\n        uint256 newAllowance = token.allowance(address(this), spender).add(value);\r\n        callOptionalReturn(token, abi.encodeWithSelector(token.approve.selector, spender, newAllowance));\r\n    }\r\n\r\n    function safeDecreaseAllowance(IERC20 token, address spender, uint256 value) internal {\r\n        uint256 newAllowance = token.allowance(address(this), spender).sub(value);\r\n        callOptionalReturn(token, abi.encodeWithSelector(token.approve.selector, spender, newAllowance));\r\n    }\r\n\r\n    /**\r\n     * @dev Imitates a Solidity high-level call (i.e. a regular function call to a contract), relaxing the requirement\r\n     * on the return value: the return value is optional (but if data is returned, it must not be false).\r\n     * @param token The token targeted by the call.\r\n     * @param data The call data (encoded using abi.encode or one of its variants).\r\n     */\r\n    function callOptionalReturn(IERC20 token, bytes memory data) private {\r\n        // We need to perform a low level call here, to bypass Solidity's return data size checking mechanism, since\r\n        // we're implementing it ourselves.\r\n\r\n        // A Solidity high level call has three parts:\r\n        //  1. The target address is checked to verify it contains contract code\r\n        //  2. The call itself is made, and success asserted\r\n        //  3. The return value is decoded, which in turn checks the size of the returned data.\r\n        // solhint-disable-next-line max-line-length\r\n        require(address(token).isContract(), \"SafeERC20: call to non-contract\");\r\n\r\n        // solhint-disable-next-line avoid-low-level-calls\r\n        (bool success, bytes memory returndata) = address(token).call(data);\r\n        require(success, \"SafeERC20: low-level call failed\");\r\n\r\n        if (returndata.length > 0) { // Return data is optional\r\n            // solhint-disable-next-line max-line-length\r\n            require(abi.decode(returndata, (bool)), \"SafeERC20: ERC20 operation did not succeed\");\r\n        }\r\n    }\r\n}\r\n\r\n/**\r\n * @dev Collection of functions related to the address type\r\n */\r\nlibrary Address {\r\n    /**\r\n     * @dev Returns true if `account` is a contract.\r\n     *\r\n     * This test is non-exhaustive, and there may be false-negatives: during the\r\n     * execution of a contract's constructor, its address will be reported as\r\n     * not containing a contract.\r\n     *\r\n     * IMPORTANT: It is unsafe to assume that an address for which this\r\n     * function returns false is an externally-owned account (EOA) and not a\r\n     * contract.\r\n     */\r\n    function isContract(address account) internal view returns (bool) {\r\n        // This method relies in extcodesize, which returns 0 for contracts in\r\n        // construction, since the code is only stored at the end of the\r\n        // constructor execution.\r\n        \r\n        // According to EIP-1052, 0x0 is the value returned for not-yet created accounts\r\n        // and 0xc5d2460186f7233c927e7db2dcc703c0e500b653ca82273b7bfad8045d85a470 is returned\r\n        // for accounts without code, i.e. `keccak256('')`\r\n        bytes32 codehash;\r\n        bytes32 accountHash = 0xc5d2460186f7233c927e7db2dcc703c0e500b653ca82273b7bfad8045d85a470;\r\n        // solhint-disable-next-line no-inline-assembly\r\n        assembly { codehash := extcodehash(account) }\r\n        return (codehash != 0x0 && codehash != accountHash);\r\n    }\r\n\r\n    /**\r\n     * @dev Converts an `address` into `address payable`. Note that this is\r\n     * simply a type cast: the actual underlying value is not changed.\r\n     */\r\n    function toPayable(address account) internal pure returns (address payable) {\r\n        return address(uint160(account));\r\n    }\r\n}\r\n\r\n/**\r\n * @title Crowdsale\r\n * @dev Crowdsale is a base contract for managing a token crowdsale,\r\n * allowing investors to purchase tokens with ether. This contract implements\r\n * such functionality in its most fundamental form and can be extended to provide additional\r\n * functionality and/or custom behavior.\r\n * The external interface represents the basic interface for purchasing tokens, and conforms\r\n * the base architecture for crowdsales. It is *not* intended to be modified / overridden.\r\n * The internal interface conforms the extensible and modifiable surface of crowdsales. Override\r\n * the methods to add functionality. Consider using 'super' where appropriate to concatenate\r\n * behavior.\r\n */\r\ncontract Crowdsale is ReentrancyGuard {\r\n    using SafeMath for uint256;\r\n    using SafeERC20 for ERC20Mocha;\r\n\r\n    // The token being sold\r\n    ERC20Mocha private _token;\r\n\r\n    // Address where funds are collected\r\n    address payable private _wallet;\r\n\r\n    // How many token units a buyer gets per wei.\r\n    // The rate is the conversion between wei and the smallest and indivisible token unit.\r\n    // So, if you are using a rate of 1 with a ERC20Detailed token with 3 decimals called TOK\r\n    // 1 wei will give you 1 unit, or 0.001 TOK.\r\n    uint256 private _rate;\r\n\r\n    // Amount of wei raised\r\n    uint256 private _weiRaised;\r\n\r\n    /**\r\n     * Event for token purchase logging\r\n     * @param purchaser who paid for the tokens\r\n     * @param beneficiary who got the tokens\r\n     * @param value weis paid for purchase\r\n     * @param amount amount of tokens purchased\r\n     */\r\n    event TokensPurchased(address indexed purchaser, address indexed beneficiary, uint256 value, uint256 amount);\r\n\r\n    /**\r\n     * @param rate Number of token units a buyer gets per wei\r\n     * @dev The rate is the conversion between wei and the smallest and indivisible\r\n     * token unit. So, if you are using a rate of 1 with a ERC20Detailed token\r\n     * with 3 decimals called TOK, 1 wei will give you 1 unit, or 0.001 TOK.\r\n     * @param wallet Address where collected funds will be forwarded to\r\n     * @param token Address of the token being sold\r\n     */\r\n    constructor (uint256 rate, address payable wallet, ERC20Mocha token) public {\r\n        require(rate > 0, \"Crowdsale: rate is 0\");\r\n        require(wallet != address(0), \"Crowdsale: wallet is the zero address\");\r\n        require(address(token) != address(0), \"Crowdsale: token is the zero address\");\r\n\r\n        _rate = rate;\r\n        _wallet = wallet;\r\n        _token = token;\r\n    }\r\n\r\n    /**\r\n     * @dev fallback function ***DO NOT OVERRIDE***\r\n     * Note that other contracts will transfer funds with a base gas stipend\r\n     * of 2300, which is not enough to call buyTokens. Consider calling\r\n     * buyTokens directly when purchasing tokens from a contract.\r\n     */\r\n    function () external payable {\r\n        buyTokens(msg.sender);\r\n    }\r\n\r\n    /**\r\n     * @return the token being sold.\r\n     */\r\n    function token() public view returns (IERC20) {\r\n        return _token;\r\n    }\r\n\r\n    /**\r\n     * @return the address where funds are collected.\r\n     */\r\n    function wallet() public view returns (address payable) {\r\n        return _wallet;\r\n    }\r\n\r\n    /**\r\n     * @return the number of token units a buyer gets per wei.\r\n     */\r\n    function rate() public view returns (uint256) {\r\n        return _rate;\r\n    }\r\n\r\n    /**\r\n     * @return the amount of wei raised.\r\n     */\r\n    function weiRaised() public view returns (uint256) {\r\n        return _weiRaised;\r\n    }\r\n\r\n    /**\r\n     * @dev low level token purchase ***DO NOT OVERRIDE***\r\n     * This function has a non-reentrancy guard, so it shouldn't be called by\r\n     * another `nonReentrant` function.\r\n     * @param beneficiary Recipient of the token purchase\r\n     */\r\n    function buyTokens(address beneficiary) public nonReentrant payable {\r\n        uint256 weiAmount = msg.value;\r\n        _preValidatePurchase(beneficiary, weiAmount);\r\n\r\n        // calculate token amount to be created\r\n        uint256 tokens = _getTokenAmount(weiAmount);\r\n\r\n        // update state\r\n        _weiRaised = _weiRaised.add(weiAmount);\r\n\r\n        _processPurchase(beneficiary, tokens);\r\n        emit TokensPurchased(msg.sender, beneficiary, weiAmount, tokens);\r\n\r\n        _updatePurchasingState(beneficiary, weiAmount);\r\n\r\n        _forwardFunds();\r\n        _postValidatePurchase(beneficiary, weiAmount);\r\n    }\r\n\r\n    /**\r\n     * @dev Validation of an incoming purchase. Use require statements to revert state when conditions are not met.\r\n     * Use `super` in contracts that inherit from Crowdsale to extend their validations.\r\n     * Example from CappedCrowdsale.sol's _preValidatePurchase method:\r\n     *     super._preValidatePurchase(beneficiary, weiAmount);\r\n     *     require(weiRaised().add(weiAmount) <= cap);\r\n     * @param beneficiary Address performing the token purchase\r\n     * @param weiAmount Value in wei involved in the purchase\r\n     */\r\n    function _preValidatePurchase(address beneficiary, uint256 weiAmount) internal view {\r\n        require(beneficiary != address(0), \"Crowdsale: beneficiary is the zero address\");\r\n        require(weiAmount != 0, \"Crowdsale: weiAmount is 0\");\r\n    }\r\n\r\n    /**\r\n     * @dev Validation of an executed purchase. Observe state and use revert statements to undo rollback when valid\r\n     * conditions are not met.\r\n     * @param beneficiary Address performing the token purchase\r\n     * @param weiAmount Value in wei involved in the purchase\r\n     */\r\n    function _postValidatePurchase(address beneficiary, uint256 weiAmount) internal view {\r\n        // solhint-disable-previous-line no-empty-blocks\r\n    }\r\n\r\n    /**\r\n     * @dev Source of tokens. Override this method to modify the way in which the crowdsale ultimately gets and sends\r\n     * its tokens.\r\n     * @param beneficiary Address performing the token purchase\r\n     * @param tokenAmount Number of tokens to be emitted\r\n     */\r\n    function _deliverTokens(address beneficiary, uint256 tokenAmount) internal {\r\n        _token.safeTransfer(beneficiary, tokenAmount);\r\n    }\r\n\r\n    /**\r\n     * @dev Executed when a purchase has been validated and is ready to be executed. Doesn't necessarily emit/send\r\n     * tokens.\r\n     * @param beneficiary Address receiving the tokens\r\n     * @param tokenAmount Number of tokens to be purchased\r\n     */\r\n    function _processPurchase(address beneficiary, uint256 tokenAmount) internal {\r\n        _deliverTokens(beneficiary, tokenAmount);\r\n    }\r\n\r\n    /**\r\n     * @dev Override for extensions that require an internal state to check for validity (current user contributions,\r\n     * etc.)\r\n     * @param beneficiary Address receiving the tokens\r\n     * @param weiAmount Value in wei involved in the purchase\r\n     */\r\n    function _updatePurchasingState(address beneficiary, uint256 weiAmount) internal {\r\n        // solhint-disable-previous-line no-empty-blocks\r\n    }\r\n\r\n    /**\r\n     * @dev Override to extend the way in which ether is converted to tokens.\r\n     * @param weiAmount Value in wei to be converted into tokens\r\n     * @return Number of tokens that can be purchased with the specified _weiAmount\r\n     */\r\n    function _getTokenAmount(uint256 weiAmount) internal view returns (uint256) {\r\n        return weiAmount.mul(_rate);\r\n    }\r\n\r\n    /**\r\n     * @dev Determines how ETH is stored/forwarded on purchases.\r\n     */\r\n    function _forwardFunds() internal {\r\n        _wallet.transfer(msg.value);\r\n    }\r\n}\r\n\r\n/**\r\n * @title MintedCrowdsale\r\n * @dev Extension of Crowdsale contract whose tokens are minted in each purchase.\r\n * Token ownership should be transferred to MintedCrowdsale for minting.\r\n */\r\ncontract MintedCrowdsale is Crowdsale {\r\n    /**\r\n     * @dev Overrides delivery by minting tokens upon purchase.\r\n     * @param beneficiary Token purchaser\r\n     * @param tokenAmount Number of tokens to be minted\r\n     */\r\n    function _deliverTokens(address beneficiary, uint256 tokenAmount) internal {\r\n        // Potentially dangerous assumption about the type of the token.\r\n        require(\r\n            ERC20Mintable(address(token())).mint(beneficiary, tokenAmount),\r\n                \"MintedCrowdsale: minting failed\"\r\n        );\r\n    }\r\n}\r\n\r\n/**\r\n * @title PausableCrowdsale\r\n * @dev Extension of Crowdsale contract where purchases can be paused and unpaused by the pauser role.\r\n */\r\ncontract PausableCrowdsale is Crowdsale, Pausable {\r\n    /**\r\n     * @dev Validation of an incoming purchase. Use require statements to revert state when conditions are not met.\r\n     * Use super to concatenate validations.\r\n     * Adds the validation that the crowdsale must not be paused.\r\n     * @param _beneficiary Address performing the token purchase\r\n     * @param _weiAmount Value in wei involved in the purchase\r\n     */\r\n    function _preValidatePurchase(address _beneficiary, uint256 _weiAmount) internal view whenNotPaused {\r\n        return super._preValidatePurchase(_beneficiary, _weiAmount);\r\n    }\r\n}\r\n\r\n/**\r\n * Main Crowdsale basic contract\r\n * version 1.0\r\n */\r\ncontract CrowdsaleDragonFruit is MintedCrowdsale, PausableCrowdsale {\r\n    constructor (uint256 rate, address payable wallet, ERC20Mocha token, bool _isPausable) public\r\n    Crowdsale(rate, wallet, token) {\r\n        // solhint-disable-previous-line no-empty-blocks\r\n        _setPausableActive(_isPausable);\r\n    }\r\n}",
    "sourcePath": "C:/xampp/htdocs/smart-contract-server/contracts/CrowdsaleDragonFruit.sol",
    "compiler": {
        "name": "solc",
        "version": "0.5.16+commit.9c3226ce.Emscripten.clang"
    },
    "schemaVersion": "3.0.22",
    "updatedAt": "2020-02-29T08:07:01.010Z",
    "devdoc": {
        "methods": {
            "buyTokens(address)": {
                "details": "low level token purchase ***DO NOT OVERRIDE*** This function has a non-reentrancy guard, so it shouldn't be called by another `nonReentrant` function.",
                "params": {
                    "beneficiary": "Recipient of the token purchase"
                }
            },
            "pause()": {
                "details": "called by the owner to pause, triggers stopped state"
            },
            "paused()": {
                "return": "true if the contract is paused, false otherwise."
            },
            "rate()": {
                "return": "the number of token units a buyer gets per wei."
            },
            "token()": {
                "return": "the token being sold."
            },
            "unpause()": {
                "details": "called by the owner to unpause, returns to normal state"
            },
            "wallet()": {
                "return": "the address where funds are collected."
            },
            "weiRaised()": {
                "return": "the amount of wei raised."
            }
        }
    },
    "userdoc": {
        "methods": {},
        "notice": "Main Crowdsale basic contract version 1.0"
    }
}