{
    "contractName": "CrowdsaleDurian",
    "abi": [
        {
            "inputs": [
                {
                    "internalType": "address",
                    "name": "creator",
                    "type": "address"
                },
                {
                    "internalType": "uint256",
                    "name": "minimum",
                    "type": "uint256"
                },
                {
                    "internalType": "uint8",
                    "name": "factor",
                    "type": "uint8"
                }
            ],
            "payable": false,
            "stateMutability": "nonpayable",
            "type": "constructor"
        },
        {
            "constant": true,
            "inputs": [
                {
                    "internalType": "address",
                    "name": "",
                    "type": "address"
                }
            ],
            "name": "approvers",
            "outputs": [
                {
                    "internalType": "bool",
                    "name": "",
                    "type": "bool"
                }
            ],
            "payable": false,
            "stateMutability": "view",
            "type": "function"
        },
        {
            "constant": true,
            "inputs": [],
            "name": "approversCount",
            "outputs": [
                {
                    "internalType": "uint256",
                    "name": "",
                    "type": "uint256"
                }
            ],
            "payable": false,
            "stateMutability": "view",
            "type": "function"
        },
        {
            "constant": true,
            "inputs": [],
            "name": "manager",
            "outputs": [
                {
                    "internalType": "address",
                    "name": "",
                    "type": "address"
                }
            ],
            "payable": false,
            "stateMutability": "view",
            "type": "function"
        },
        {
            "constant": true,
            "inputs": [
                {
                    "internalType": "uint256",
                    "name": "",
                    "type": "uint256"
                }
            ],
            "name": "requests",
            "outputs": [
                {
                    "internalType": "string",
                    "name": "description",
                    "type": "string"
                },
                {
                    "internalType": "uint256",
                    "name": "value",
                    "type": "uint256"
                },
                {
                    "internalType": "address payable",
                    "name": "recipient",
                    "type": "address"
                },
                {
                    "internalType": "bool",
                    "name": "complete",
                    "type": "bool"
                },
                {
                    "internalType": "uint256",
                    "name": "approvalCount",
                    "type": "uint256"
                }
            ],
            "payable": false,
            "stateMutability": "view",
            "type": "function"
        },
        {
            "constant": false,
            "inputs": [],
            "name": "contribute",
            "outputs": [],
            "payable": true,
            "stateMutability": "payable",
            "type": "function"
        },
        {
            "constant": false,
            "inputs": [
                {
                    "internalType": "string",
                    "name": "description",
                    "type": "string"
                },
                {
                    "internalType": "uint256",
                    "name": "value",
                    "type": "uint256"
                },
                {
                    "internalType": "address payable",
                    "name": "recipient",
                    "type": "address"
                }
            ],
            "name": "createRequest",
            "outputs": [],
            "payable": false,
            "stateMutability": "nonpayable",
            "type": "function"
        },
        {
            "constant": false,
            "inputs": [
                {
                    "internalType": "uint256",
                    "name": "index",
                    "type": "uint256"
                }
            ],
            "name": "approveRequest",
            "outputs": [],
            "payable": false,
            "stateMutability": "nonpayable",
            "type": "function"
        },
        {
            "constant": true,
            "inputs": [
                {
                    "internalType": "uint256",
                    "name": "index",
                    "type": "uint256"
                }
            ],
            "name": "approved",
            "outputs": [
                {
                    "internalType": "bool",
                    "name": "",
                    "type": "bool"
                }
            ],
            "payable": false,
            "stateMutability": "view",
            "type": "function"
        },
        {
            "constant": false,
            "inputs": [
                {
                    "internalType": "uint256",
                    "name": "index",
                    "type": "uint256"
                }
            ],
            "name": "finalizeRequest",
            "outputs": [],
            "payable": false,
            "stateMutability": "nonpayable",
            "type": "function"
        },
        {
            "constant": true,
            "inputs": [],
            "name": "getSummary",
            "outputs": [
                {
                    "internalType": "uint256",
                    "name": "",
                    "type": "uint256"
                },
                {
                    "internalType": "uint256",
                    "name": "",
                    "type": "uint256"
                },
                {
                    "internalType": "uint256",
                    "name": "",
                    "type": "uint256"
                },
                {
                    "internalType": "uint256",
                    "name": "",
                    "type": "uint256"
                },
                {
                    "internalType": "address",
                    "name": "",
                    "type": "address"
                }
            ],
            "payable": false,
            "stateMutability": "view",
            "type": "function"
        },
        {
            "constant": true,
            "inputs": [],
            "name": "getRequestsCount",
            "outputs": [
                {
                    "internalType": "uint256",
                    "name": "",
                    "type": "uint256"
                }
            ],
            "payable": false,
            "stateMutability": "view",
            "type": "function"
        }
    ],
    "bytecode": "0x608060405234801561001057600080fd5b50604051610f6b380380610f6b8339818101604052606081101561003357600080fd5b8101908080519060200190929190805190602001909291908051906020019092919050505060028160ff16101561006957600080fd5b600a8160ff16111561007a57600080fd5b82600160006101000a81548173ffffffffffffffffffffffffffffffffffffffff021916908373ffffffffffffffffffffffffffffffffffffffff16021790555080600360006101000a81548160ff021916908360ff16021790555081600281905550505050610e7c806100ef6000396000f3fe60806040526004361061009c5760003560e01c80637d4061e6116100645780637d4061e61461023a57806381d12c581461028d57806382fde0931461038d5780638a9cfd55146103b8578063d7bb99ba146104aa578063d7d1bbdb146104b45761009c565b806303441006146100a15780630a144391146100dc5780633410452a146101455780634051ddac14610170578063481c6a75146101e3575b600080fd5b3480156100ad57600080fd5b506100da600480360360208110156100c457600080fd5b81019080803590602001909291905050506104ef565b005b3480156100e857600080fd5b5061012b600480360360208110156100ff57600080fd5b81019080803573ffffffffffffffffffffffffffffffffffffffff16906020019092919050505061064a565b604051808215151515815260200191505060405180910390f35b34801561015157600080fd5b5061015a61066a565b6040518082815260200191505060405180910390f35b34801561017c57600080fd5b50610185610676565b604051808681526020018581526020018481526020018381526020018273ffffffffffffffffffffffffffffffffffffffff1673ffffffffffffffffffffffffffffffffffffffff1681526020019550505050505060405180910390f35b3480156101ef57600080fd5b506101f86106bf565b604051808273ffffffffffffffffffffffffffffffffffffffff1673ffffffffffffffffffffffffffffffffffffffff16815260200191505060405180910390f35b34801561024657600080fd5b506102736004803603602081101561025d57600080fd5b81019080803590602001909291905050506106e5565b604051808215151515815260200191505060405180910390f35b34801561029957600080fd5b506102c6600480360360208110156102b057600080fd5b81019080803590602001909291905050506107bd565b60405180806020018681526020018573ffffffffffffffffffffffffffffffffffffffff1673ffffffffffffffffffffffffffffffffffffffff16815260200184151515158152602001838152602001828103825287818151815260200191508051906020019080838360005b8381101561034e578082015181840152602081019050610333565b50505050905090810190601f16801561037b5780820380516001836020036101000a031916815260200191505b50965050505050505060405180910390f35b34801561039957600080fd5b506103a26108c5565b6040518082815260200191505060405180910390f35b3480156103c457600080fd5b506104a8600480360360608110156103db57600080fd5b81019080803590602001906401000000008111156103f857600080fd5b82018360208201111561040a57600080fd5b8035906020019184600183028401116401000000008311171561042c57600080fd5b91908080601f016020809104026020016040519081016040528093929190818152602001838380828437600081840152601f19601f82011690508083019250505050505050919291929080359060200190929190803573ffffffffffffffffffffffffffffffffffffffff1690602001909291905050506108cb565b005b6104b2610a3f565b005b3480156104c057600080fd5b506104ed600480360360208110156104d757600080fd5b8101908080359060200190929190505050610b0c565b005b600160009054906101000a900473ffffffffffffffffffffffffffffffffffffffff1673ffffffffffffffffffffffffffffffffffffffff163373ffffffffffffffffffffffffffffffffffffffff161461054957600080fd5b600080828154811061055757fe5b9060005260206000209060050201905061058e600360009054906101000a900460ff1660ff16600554610c4b90919063ffffffff16565b8160030154101561059e57600080fd5b8060020160149054906101000a900460ff16156105ba57600080fd5b60018160020160146101000a81548160ff0219169083151502179055508060020160009054906101000a900473ffffffffffffffffffffffffffffffffffffffff1673ffffffffffffffffffffffffffffffffffffffff166108fc82600101549081150290604051600060405180830381858888f19350505050158015610645573d6000803e3d6000fd5b505050565b60046020528060005260406000206000915054906101000a900460ff1681565b60008080549050905090565b600080600080600060025447600080549050600554600160009054906101000a900473ffffffffffffffffffffffffffffffffffffffff16945094509450945094509091929394565b600160009054906101000a900473ffffffffffffffffffffffffffffffffffffffff1681565b6000600460003373ffffffffffffffffffffffffffffffffffffffff1673ffffffffffffffffffffffffffffffffffffffff16815260200190815260200160002060009054906101000a900460ff1680156107a557506000828154811061074857fe5b906000526020600020906005020160040160003373ffffffffffffffffffffffffffffffffffffffff1673ffffffffffffffffffffffffffffffffffffffff16815260200190815260200160002060009054906101000a900460ff165b156107b357600190506107b8565b600090505b919050565b600081815481106107ca57fe5b9060005260206000209060050201600091509050806000018054600181600116156101000203166002900480601f0160208091040260200160405190810160405280929190818152602001828054600181600116156101000203166002900480156108765780601f1061084b57610100808354040283529160200191610876565b820191906000526020600020905b81548152906001019060200180831161085957829003601f168201915b5050505050908060010154908060020160009054906101000a900473ffffffffffffffffffffffffffffffffffffffff16908060020160149054906101000a900460ff16908060030154905085565b60055481565b600160009054906101000a900473ffffffffffffffffffffffffffffffffffffffff1673ffffffffffffffffffffffffffffffffffffffff163373ffffffffffffffffffffffffffffffffffffffff161461092557600080fd5b61092d610d5b565b6040518060a001604052808581526020018481526020018373ffffffffffffffffffffffffffffffffffffffff168152602001600015158152602001600081525090506000819080600181540180825580915050906001820390600052602060002090600502016000909192909190915060008201518160000190805190602001906109ba929190610da2565b506020820151816001015560408201518160020160006101000a81548173ffffffffffffffffffffffffffffffffffffffff021916908373ffffffffffffffffffffffffffffffffffffffff16021790555060608201518160020160146101000a81548160ff0219169083151502179055506080820151816003015550505050505050565b600254341015610a4e57600080fd5b600460003373ffffffffffffffffffffffffffffffffffffffff1673ffffffffffffffffffffffffffffffffffffffff16815260200190815260200160002060009054906101000a900460ff16610ab2576005600081548092919060010191905055505b6001600460003373ffffffffffffffffffffffffffffffffffffffff1673ffffffffffffffffffffffffffffffffffffffff16815260200190815260200160002060006101000a81548160ff021916908315150217905550565b6000808281548110610b1a57fe5b90600052602060002090600502019050600460003373ffffffffffffffffffffffffffffffffffffffff1673ffffffffffffffffffffffffffffffffffffffff16815260200190815260200160002060009054906101000a900460ff16610b8057600080fd5b8060040160003373ffffffffffffffffffffffffffffffffffffffff1673ffffffffffffffffffffffffffffffffffffffff16815260200190815260200160002060009054906101000a900460ff1615610bd957600080fd5b60018160040160003373ffffffffffffffffffffffffffffffffffffffff1673ffffffffffffffffffffffffffffffffffffffff16815260200190815260200160002060006101000a81548160ff02191690831515021790555080600301600081548092919060010191905055505050565b6000610c8d83836040518060400160405280601a81526020017f536166654d6174683a206469766973696f6e206279207a65726f000000000000815250610c95565b905092915050565b60008083118290610d41576040517f08c379a00000000000000000000000000000000000000000000000000000000081526004018080602001828103825283818151815260200191508051906020019080838360005b83811015610d06578082015181840152602081019050610ceb565b50505050905090810190601f168015610d335780820380516001836020036101000a031916815260200191505b509250505060405180910390fd5b506000838581610d4d57fe5b049050809150509392505050565b6040518060a001604052806060815260200160008152602001600073ffffffffffffffffffffffffffffffffffffffff168152602001600015158152602001600081525090565b828054600181600116156101000203166002900490600052602060002090601f016020900481019282601f10610de357805160ff1916838001178555610e11565b82800160010185558215610e11579182015b82811115610e10578251825591602001919060010190610df5565b5b509050610e1e9190610e22565b5090565b610e4491905b80821115610e40576000816000905550600101610e28565b5090565b9056fea265627a7a72315820768306d40c59f4a7f64f54ac6a69c599d393a6c4e2f44f5c9d48b4c7b8dfdceb64736f6c63430005100032",
    "source": "pragma solidity ^0.5.7;\r\n\r\nimport \"./ERC20Latte.sol\";\r\nimport \"../node_modules/@openzeppelin/contracts/math/SafeMath.sol\";\r\n\r\n/**\r\n *\r\n * Contribution campaigns including the ability to approve the transfer of funds per request\r\n *\r\n */\r\n\r\ncontract CrowdsaleDurian {\r\n\r\n    using SafeMath for uint256;\r\n    \r\n    // Request definition\r\n    struct Request {\r\n        string description;\r\n        uint256 value;\r\n        address payable recipient;\r\n        bool complete;\r\n        uint256 approvalCount;\r\n        mapping(address => bool) approvals;\r\n    }\r\n    \r\n    Request[] public requests; // requests instance\r\n    address public manager; // the owner\r\n    uint256 minimumContribution; // the... minimum contribution\r\n\r\n    /*\r\n        a factor to calculate minimum number of approvers by 100/factor\r\n        the factor values are 2 and 10, factors that makes sense:\r\n            2: meaning that the number or approvers required will be 50%\r\n            3: 33.3%\r\n            4: 25%\r\n            5: 20%\r\n            10: 10%\r\n    */\r\n    uint8 approversFactor;\r\n    \r\n    mapping(address => bool) public approvers;\r\n    uint256 public approversCount;\r\n\r\n    // function to add validation of the manager to run any function\r\n    modifier restricted() {\r\n        require(msg.sender == manager);\r\n        _;\r\n    }\r\n\r\n    // Constructor function to create a Campaign\r\n    constructor(address creator, uint256 minimum, uint8 factor) public {\r\n        // validate factor number betweeb 2 and 10\r\n        require(factor >= 2);\r\n        require(factor <= 10);\r\n        manager = creator;\r\n        approversFactor = factor;\r\n        minimumContribution = minimum;\r\n    }\r\n    \r\n    // allows a contributions\r\n    function contribute() public payable {\r\n        // validate minimun contribution\r\n        require(msg.value >= minimumContribution);\r\n\r\n        // increment the number of approvers\r\n        if (!approvers[msg.sender]) {\r\n            approversCount++;\r\n        }\r\n\r\n        approvers[msg.sender] = true; // this maps this address with true\r\n\r\n    }\r\n\r\n    // create a request...\r\n    function createRequest(string memory description, uint256 value, address payable recipient) public restricted {\r\n\r\n        // create the struct, specifying memory as a holder\r\n        Request memory newRequest = Request({\r\n           description: description,\r\n           value: value,\r\n           recipient: recipient,\r\n           complete: false,\r\n           approvalCount: 0\r\n        });\r\n\r\n        requests.push(newRequest);\r\n\r\n    }\r\n\r\n    // contributors has the right to approve request\r\n    function approveRequest(uint256 index) public {\r\n        \r\n        // this is to store in a local variable \"request\" the request[index] and avoid using it all the time\r\n        Request storage request = requests[index];\r\n        \r\n        // if will require that the sender address is in the mapping of approvers\r\n        require(approvers[msg.sender]);\r\n        \r\n        // it will require the contributor not to vote twice for the same request\r\n        require(!request.approvals[msg.sender]);\r\n        \r\n        // add the voter to the approvals map\r\n        request.approvals[msg.sender] = true;\r\n        \r\n        // increment the number of YES votes for the request\r\n        request.approvalCount++;\r\n        \r\n    }\r\n\r\n    // check if the sender already approved the request index\r\n    function approved(uint256 index) public view returns (bool) {\r\n\r\n        // if the msg.sender is an approver and also the msg.sender already approved the request “index” returns true\r\n        if (approvers[msg.sender] && requests[index].approvals[msg.sender]) {\r\n            return true;\r\n        } else {\r\n            return false;\r\n        }\r\n\r\n    }\r\n    \r\n    // send the money to the vendor if there are enough votes\r\n    // only the creator is allowed to run this function\r\n    function finalizeRequest(uint256 index) public restricted {\r\n        \r\n        // this is to store in a local variable \"request\" the request[index] and avoid using it all the time\r\n        Request storage request = requests[index];\r\n\r\n        // transfer the money if it has more than X% of approvals\r\n        require(request.approvalCount >= approversCount.div(approversFactor));\r\n        \r\n        // we will require that the request in process is not completed yet\r\n        require(!request.complete);\r\n        \r\n        // mark the request as completed\r\n        request.complete = true;\r\n        \r\n        // transfer the money requested (value) from the contract to the vendor that created the request\r\n        request.recipient.transfer(request.value);\r\n        \r\n    }\r\n\r\n    // helper function to show basic info of a contract in the interface\r\n    function getSummary() public view returns (\r\n      uint256, uint256, uint256, uint256, address\r\n      ) {\r\n        return (\r\n          minimumContribution,\r\n          address(this).balance,\r\n          requests.length,\r\n          approversCount,\r\n          manager\r\n        );\r\n    }\r\n\r\n    function getRequestsCount() public view returns (uint256) {\r\n        return requests.length;\r\n    }\r\n\r\n}",
    "sourcePath": "C:/xampp/htdocs/smart-contract-server/contracts/CrowdsaleDurian.sol",
    "compiler": {
        "name": "solc",
        "version": "0.5.16+commit.9c3226ce.Emscripten.clang"
    },
    "schemaVersion": "3.0.22",
    "updatedAt": "2020-02-29T08:07:01.479Z",
    "devdoc": {
        "methods": {}
    },
    "userdoc": {
        "methods": {},
        "notice": " * Contribution campaigns including the ability to approve the transfer of funds per request  "
    }
}