{
  "contractName": "ERC20Mocha",
  "abi": [
    {
      "constant": true,
      "inputs": [],
      "name": "name",
      "outputs": [
        {
          "name": "",
          "type": "string"
        }
      ],
      "payable": false,
      "stateMutability": "view",
      "type": "function"
    },
    {
      "constant": true,
      "inputs": [],
      "name": "totalSupply",
      "outputs": [
        {
          "name": "",
          "type": "uint256"
        }
      ],
      "payable": false,
      "stateMutability": "view",
      "type": "function"
    },
    {
      "constant": true,
      "inputs": [],
      "name": "decimals",
      "outputs": [
        {
          "name": "",
          "type": "uint8"
        }
      ],
      "payable": false,
      "stateMutability": "view",
      "type": "function"
    },
    {
      "constant": false,
      "inputs": [],
      "name": "unpause",
      "outputs": [],
      "payable": false,
      "stateMutability": "nonpayable",
      "type": "function"
    },
    {
      "constant": false,
      "inputs": [
        {
          "name": "to",
          "type": "address"
        },
        {
          "name": "value",
          "type": "uint256"
        }
      ],
      "name": "mint",
      "outputs": [
        {
          "name": "",
          "type": "bool"
        }
      ],
      "payable": false,
      "stateMutability": "nonpayable",
      "type": "function"
    },
    {
      "constant": false,
      "inputs": [
        {
          "name": "value",
          "type": "uint256"
        }
      ],
      "name": "burn",
      "outputs": [],
      "payable": false,
      "stateMutability": "nonpayable",
      "type": "function"
    },
    {
      "constant": true,
      "inputs": [
        {
          "name": "account",
          "type": "address"
        }
      ],
      "name": "isPauser",
      "outputs": [
        {
          "name": "",
          "type": "bool"
        }
      ],
      "payable": false,
      "stateMutability": "view",
      "type": "function"
    },
    {
      "constant": true,
      "inputs": [],
      "name": "paused",
      "outputs": [
        {
          "name": "",
          "type": "bool"
        }
      ],
      "payable": false,
      "stateMutability": "view",
      "type": "function"
    },
    {
      "constant": false,
      "inputs": [],
      "name": "renouncePauser",
      "outputs": [],
      "payable": false,
      "stateMutability": "nonpayable",
      "type": "function"
    },
    {
      "constant": true,
      "inputs": [
        {
          "name": "account",
          "type": "address"
        }
      ],
      "name": "balanceOf",
      "outputs": [
        {
          "name": "",
          "type": "uint256"
        }
      ],
      "payable": false,
      "stateMutability": "view",
      "type": "function"
    },
    {
      "constant": false,
      "inputs": [
        {
          "name": "from",
          "type": "address"
        },
        {
          "name": "value",
          "type": "uint256"
        }
      ],
      "name": "burnFrom",
      "outputs": [],
      "payable": false,
      "stateMutability": "nonpayable",
      "type": "function"
    },
    {
      "constant": false,
      "inputs": [
        {
          "name": "account",
          "type": "address"
        }
      ],
      "name": "addPauser",
      "outputs": [],
      "payable": false,
      "stateMutability": "nonpayable",
      "type": "function"
    },
    {
      "constant": false,
      "inputs": [],
      "name": "pause",
      "outputs": [],
      "payable": false,
      "stateMutability": "nonpayable",
      "type": "function"
    },
    {
      "constant": true,
      "inputs": [],
      "name": "symbol",
      "outputs": [
        {
          "name": "",
          "type": "string"
        }
      ],
      "payable": false,
      "stateMutability": "view",
      "type": "function"
    },
    {
      "constant": false,
      "inputs": [
        {
          "name": "account",
          "type": "address"
        }
      ],
      "name": "addMinter",
      "outputs": [],
      "payable": false,
      "stateMutability": "nonpayable",
      "type": "function"
    },
    {
      "constant": false,
      "inputs": [],
      "name": "renounceMinter",
      "outputs": [],
      "payable": false,
      "stateMutability": "nonpayable",
      "type": "function"
    },
    {
      "constant": true,
      "inputs": [
        {
          "name": "account",
          "type": "address"
        }
      ],
      "name": "isMinter",
      "outputs": [
        {
          "name": "",
          "type": "bool"
        }
      ],
      "payable": false,
      "stateMutability": "view",
      "type": "function"
    },
    {
      "constant": true,
      "inputs": [
        {
          "name": "owner",
          "type": "address"
        },
        {
          "name": "spender",
          "type": "address"
        }
      ],
      "name": "allowance",
      "outputs": [
        {
          "name": "",
          "type": "uint256"
        }
      ],
      "payable": false,
      "stateMutability": "view",
      "type": "function"
    },
    {
      "inputs": [
        {
          "name": "initialAccount",
          "type": "address"
        },
        {
          "name": "_tokenSymbol",
          "type": "string"
        },
        {
          "name": "_tokenName",
          "type": "string"
        },
        {
          "name": "initialBalance",
          "type": "uint256"
        },
        {
          "name": "cap",
          "type": "uint256"
        },
        {
          "name": "_burnableOption",
          "type": "bool"
        },
        {
          "name": "_mintableOption",
          "type": "bool"
        },
        {
          "name": "_pausableOption",
          "type": "bool"
        }
      ],
      "payable": false,
      "stateMutability": "nonpayable",
      "type": "constructor"
    },
    {
      "anonymous": false,
      "inputs": [
        {
          "indexed": false,
          "name": "account",
          "type": "address"
        }
      ],
      "name": "Paused",
      "type": "event"
    },
    {
      "anonymous": false,
      "inputs": [
        {
          "indexed": false,
          "name": "account",
          "type": "address"
        }
      ],
      "name": "Unpaused",
      "type": "event"
    },
    {
      "anonymous": false,
      "inputs": [
        {
          "indexed": true,
          "name": "account",
          "type": "address"
        }
      ],
      "name": "PauserAdded",
      "type": "event"
    },
    {
      "anonymous": false,
      "inputs": [
        {
          "indexed": true,
          "name": "account",
          "type": "address"
        }
      ],
      "name": "PauserRemoved",
      "type": "event"
    },
    {
      "anonymous": false,
      "inputs": [
        {
          "indexed": true,
          "name": "account",
          "type": "address"
        }
      ],
      "name": "MinterAdded",
      "type": "event"
    },
    {
      "anonymous": false,
      "inputs": [
        {
          "indexed": true,
          "name": "account",
          "type": "address"
        }
      ],
      "name": "MinterRemoved",
      "type": "event"
    },
    {
      "anonymous": false,
      "inputs": [
        {
          "indexed": true,
          "name": "from",
          "type": "address"
        },
        {
          "indexed": true,
          "name": "to",
          "type": "address"
        },
        {
          "indexed": false,
          "name": "value",
          "type": "uint256"
        }
      ],
      "name": "Transfer",
      "type": "event"
    },
    {
      "anonymous": false,
      "inputs": [
        {
          "indexed": true,
          "name": "owner",
          "type": "address"
        },
        {
          "indexed": true,
          "name": "spender",
          "type": "address"
        },
        {
          "indexed": false,
          "name": "value",
          "type": "uint256"
        }
      ],
      "name": "Approval",
      "type": "event"
    },
    {
      "constant": true,
      "inputs": [],
      "name": "cap",
      "outputs": [
        {
          "name": "",
          "type": "uint256"
        }
      ],
      "payable": false,
      "stateMutability": "view",
      "type": "function"
    },
    {
      "constant": false,
      "inputs": [
        {
          "name": "to",
          "type": "address"
        },
        {
          "name": "value",
          "type": "uint256"
        }
      ],
      "name": "transfer",
      "outputs": [
        {
          "name": "",
          "type": "bool"
        }
      ],
      "payable": false,
      "stateMutability": "nonpayable",
      "type": "function"
    },
    {
      "constant": false,
      "inputs": [
        {
          "name": "from",
          "type": "address"
        },
        {
          "name": "to",
          "type": "address"
        },
        {
          "name": "value",
          "type": "uint256"
        }
      ],
      "name": "transferFrom",
      "outputs": [
        {
          "name": "",
          "type": "bool"
        }
      ],
      "payable": false,
      "stateMutability": "nonpayable",
      "type": "function"
    },
    {
      "constant": false,
      "inputs": [
        {
          "name": "spender",
          "type": "address"
        },
        {
          "name": "value",
          "type": "uint256"
        }
      ],
      "name": "approve",
      "outputs": [
        {
          "name": "",
          "type": "bool"
        }
      ],
      "payable": false,
      "stateMutability": "nonpayable",
      "type": "function"
    },
    {
      "constant": false,
      "inputs": [
        {
          "name": "spender",
          "type": "address"
        },
        {
          "name": "addedValue",
          "type": "uint256"
        }
      ],
      "name": "increaseAllowance",
      "outputs": [
        {
          "name": "success",
          "type": "bool"
        }
      ],
      "payable": false,
      "stateMutability": "nonpayable",
      "type": "function"
    },
    {
      "constant": false,
      "inputs": [
        {
          "name": "spender",
          "type": "address"
        },
        {
          "name": "subtractedValue",
          "type": "uint256"
        }
      ],
      "name": "decreaseAllowance",
      "outputs": [
        {
          "name": "success",
          "type": "bool"
        }
      ],
      "payable": false,
      "stateMutability": "nonpayable",
      "type": "function"
    }
  ],
  "bytecode": "0x60806040523480156200001157600080fd5b50604051620032fe380380620032fe83398101806040526101008110156200003857600080fd5b810190808051906020019092919080516401000000008111156200005b57600080fd5b828101905060208101848111156200007257600080fd5b81518560018202830111640100000000821117156200009057600080fd5b50509291906020018051640100000000811115620000ad57600080fd5b82810190506020810184811115620000c457600080fd5b8151856001820283011164010000000082111715620000e257600080fd5b505092919060200180519060200190929190805190602001909291908051906020019092919080519060200190929190805190602001909291905050508787878782600390805190602001906200013b92919062000b67565b5081600490805190602001906200015492919062000b67565b506012600560006101000a81548160ff021916908360ff1602179055506200018c848262000303640100000000026401000000009004565b50505050620001c2620001ad62000380640100000000026401000000009004565b62000388640100000000026401000000009004565b620001f4620001df62000380640100000000026401000000009004565b620003f2640100000000026401000000009004565b6000600960016101000a81548160ff02191690831515021790555062000229886200045c640100000000026401000000009004565b15156200024b576200024a8862000489640100000000026401000000009004565b5b620002658862000573640100000000026401000000009004565b151562000287576200028688620005a0640100000000026401000000009004565b5b60008411156200029e5783600a81905550620002a7565b6000600a819055505b620002c1836200068a640100000000026401000000009004565b620002db82620006a7640100000000026401000000009004565b620002f581620006c4640100000000026401000000009004565b505050505050505062000c16565b6000600a5411156200035c57600a546200034d8262000330620006e1640100000000026401000000009004565b620006eb640100000000026200223c179091906401000000009004565b111515156200035b57600080fd5b5b6200037c82826200077664010000000002620022c6176401000000009004565b5050565b600033905090565b620003ac8160066200095464010000000002620025cf179091906401000000009004565b8073ffffffffffffffffffffffffffffffffffffffff167f6ae172837ea30b801fbfcdd4108aa1d5bf8ff775444fd70256b44e6bf3dfc3f660405160405180910390a250565b620004168160086200095464010000000002620025cf179091906401000000009004565b8073ffffffffffffffffffffffffffffffffffffffff167f6719d08c1888103bea251a4ed56406bd0c3e69723c8a1686e017e7bbe159b6f860405160405180910390a250565b60006200048282600662000a4364010000000002620016a8179091906401000000009004565b9050919050565b620004bb620004a662000380640100000000026401000000009004565b6200045c640100000000026401000000009004565b151562000556576040517f08c379a00000000000000000000000000000000000000000000000000000000081526004018080602001828103825260308152602001807f4d696e746572526f6c653a2063616c6c657220646f6573206e6f74206861766581526020017f20746865204d696e74657220726f6c650000000000000000000000000000000081525060400191505060405180910390fd5b620005708162000388640100000000026401000000009004565b50565b60006200059982600862000a4364010000000002620016a8179091906401000000009004565b9050919050565b620005d2620005bd62000380640100000000026401000000009004565b62000573640100000000026401000000009004565b15156200066d576040517f08c379a00000000000000000000000000000000000000000000000000000000081526004018080602001828103825260308152602001807f506175736572526f6c653a2063616c6c657220646f6573206e6f74206861766581526020017f207468652050617573657220726f6c650000000000000000000000000000000081525060400191505060405180910390fd5b6200068781620003f2640100000000026401000000009004565b50565b80600560016101000a81548160ff02191690831515021790555050565b80600760006101000a81548160ff02191690831515021790555050565b80600960006101000a81548160ff02191690831515021790555050565b6000600254905090565b60008082840190508381101515156200076c576040517f08c379a000000000000000000000000000000000000000000000000000000000815260040180806020018281038252601b8152602001807f536166654d6174683a206164646974696f6e206f766572666c6f77000000000081525060200191505060405180910390fd5b8091505092915050565b600073ffffffffffffffffffffffffffffffffffffffff168273ffffffffffffffffffffffffffffffffffffffff16141515156200081c576040517f08c379a000000000000000000000000000000000000000000000000000000000815260040180806020018281038252601f8152602001807f45524332303a206d696e7420746f20746865207a65726f20616464726573730081525060200191505060405180910390fd5b6200084181600254620006eb640100000000026200223c179091906401000000009004565b600281905550620008a8816000808573ffffffffffffffffffffffffffffffffffffffff1673ffffffffffffffffffffffffffffffffffffffff16815260200190815260200160002054620006eb640100000000026200223c179091906401000000009004565b6000808473ffffffffffffffffffffffffffffffffffffffff1673ffffffffffffffffffffffffffffffffffffffff168152602001908152602001600020819055508173ffffffffffffffffffffffffffffffffffffffff16600073ffffffffffffffffffffffffffffffffffffffff167fddf252ad1be2c89b69c2b068fc378daa952ba7f163c4a11628f55a4df523b3ef836040518082815260200191505060405180910390a35050565b6200096f828262000a43640100000000026401000000009004565b151515620009e5576040517f08c379a000000000000000000000000000000000000000000000000000000000815260040180806020018281038252601f8152602001807f526f6c65733a206163636f756e7420616c72656164792068617320726f6c650081525060200191505060405180910390fd5b60018260000160008373ffffffffffffffffffffffffffffffffffffffff1673ffffffffffffffffffffffffffffffffffffffff16815260200190815260200160002060006101000a81548160ff0219169083151502179055505050565b60008073ffffffffffffffffffffffffffffffffffffffff168273ffffffffffffffffffffffffffffffffffffffff161415151562000b10576040517f08c379a00000000000000000000000000000000000000000000000000000000081526004018080602001828103825260228152602001807f526f6c65733a206163636f756e7420697320746865207a65726f20616464726581526020017f737300000000000000000000000000000000000000000000000000000000000081525060400191505060405180910390fd5b8260000160008373ffffffffffffffffffffffffffffffffffffffff1673ffffffffffffffffffffffffffffffffffffffff16815260200190815260200160002060009054906101000a900460ff16905092915050565b828054600181600116156101000203166002900490600052602060002090601f016020900481019282601f1062000baa57805160ff191683800117855562000bdb565b8280016001018555821562000bdb579182015b8281111562000bda57825182559160200191906001019062000bbd565b5b50905062000bea919062000bee565b5090565b62000c1391905b8082111562000c0f57600081600090555060010162000bf5565b5090565b90565b6126d88062000c266000396000f3fe60806040526004361061013e576000357c0100000000000000000000000000000000000000000000000000000000900463ffffffff16806306fdde0314610143578063095ea7b3146101d357806318160ddd1461024657806323b872dd14610271578063313ce56714610304578063355274ea1461033557806339509351146103605780633f4ba83a146103d357806340c10f19146103ea57806342966c681461045d57806346fbf68e146104985780635c975abb146105015780636ef8d66d1461053057806370a082311461054757806379cc6790146105ac57806382dc1ec4146106075780638456cb591461065857806395d89b411461066f578063983b2d56146106ff5780639865027514610750578063a457c2d714610767578063a9059cbb146107da578063aa271e1a1461084d578063dd62ed3e146108b6575b600080fd5b34801561014f57600080fd5b5061015861093b565b6040518080602001828103825283818151815260200191508051906020019080838360005b8381101561019857808201518184015260208101905061017d565b50505050905090810190601f1680156101c55780820380516001836020036101000a031916815260200191505b509250505060405180910390f35b3480156101df57600080fd5b5061022c600480360360408110156101f657600080fd5b81019080803573ffffffffffffffffffffffffffffffffffffffff169060200190929190803590602001909291905050506109d9565b604051808215151515815260200191505060405180910390f35b34801561025257600080fd5b5061025b610a09565b6040518082815260200191505060405180910390f35b34801561027d57600080fd5b506102ea6004803603606081101561029457600080fd5b81019080803573ffffffffffffffffffffffffffffffffffffffff169060200190929190803573ffffffffffffffffffffffffffffffffffffffff16906020019092919080359060200190929190505050610a13565b604051808215151515815260200191505060405180910390f35b34801561031057600080fd5b50610319610a45565b604051808260ff1660ff16815260200191505060405180910390f35b34801561034157600080fd5b5061034a610a58565b6040518082815260200191505060405180910390f35b34801561036c57600080fd5b506103b96004803603604081101561038357600080fd5b81019080803573ffffffffffffffffffffffffffffffffffffffff16906020019092919080359060200190929190505050610a62565b604051808215151515815260200191505060405180910390f35b3480156103df57600080fd5b506103e8610a92565b005b3480156103f657600080fd5b506104436004803603604081101561040d57600080fd5b81019080803573ffffffffffffffffffffffffffffffffffffffff16906020019092919080359060200190929190505050610bf2565b604051808215151515815260200191505060405180910390f35b34801561046957600080fd5b506104966004803603602081101561048057600080fd5b8101908080359060200190929190505050610ccd565b005b3480156104a457600080fd5b506104e7600480360360208110156104bb57600080fd5b81019080803573ffffffffffffffffffffffffffffffffffffffff169060200190929190505050610cf5565b604051808215151515815260200191505060405180910390f35b34801561050d57600080fd5b50610516610d12565b604051808215151515815260200191505060405180910390f35b34801561053c57600080fd5b50610545610d29565b005b34801561055357600080fd5b506105966004803603602081101561056a57600080fd5b81019080803573ffffffffffffffffffffffffffffffffffffffff169060200190929190505050610d3b565b6040518082815260200191505060405180910390f35b3480156105b857600080fd5b50610605600480360360408110156105cf57600080fd5b81019080803573ffffffffffffffffffffffffffffffffffffffff16906020019092919080359060200190929190505050610d83565b005b34801561061357600080fd5b506106566004803603602081101561062a57600080fd5b81019080803573ffffffffffffffffffffffffffffffffffffffff169060200190929190505050610dac565b005b34801561066457600080fd5b5061066d610e62565b005b34801561067b57600080fd5b50610684610fc3565b6040518080602001828103825283818151815260200191508051906020019080838360005b838110156106c45780820151818401526020810190506106a9565b50505050905090810190601f1680156106f15780820380516001836020036101000a031916815260200191505b509250505060405180910390f35b34801561070b57600080fd5b5061074e6004803603602081101561072257600080fd5b81019080803573ffffffffffffffffffffffffffffffffffffffff169060200190929190505050611061565b005b34801561075c57600080fd5b50610765611117565b005b34801561077357600080fd5b506107c06004803603604081101561078a57600080fd5b81019080803573ffffffffffffffffffffffffffffffffffffffff16906020019092919080359060200190929190505050611129565b604051808215151515815260200191505060405180910390f35b3480156107e657600080fd5b50610833600480360360408110156107fd57600080fd5b81019080803573ffffffffffffffffffffffffffffffffffffffff16906020019092919080359060200190929190505050611159565b604051808215151515815260200191505060405180910390f35b34801561085957600080fd5b5061089c6004803603602081101561087057600080fd5b81019080803573ffffffffffffffffffffffffffffffffffffffff169060200190929190505050611189565b604051808215151515815260200191505060405180910390f35b3480156108c257600080fd5b50610925600480360360408110156108d957600080fd5b81019080803573ffffffffffffffffffffffffffffffffffffffff169060200190929190803573ffffffffffffffffffffffffffffffffffffffff1690602001909291905050506111a6565b6040518082815260200191505060405180910390f35b60048054600181600116156101000203166002900480601f0160208091040260200160405190810160405280929190818152602001828054600181600116156101000203166002900480156109d15780601f106109a6576101008083540402835291602001916109d1565b820191906000526020600020905b8154815290600101906020018083116109b457829003601f168201915b505050505081565b6000600960019054906101000a900460ff161515156109f757600080fd5b610a01838361122d565b905092915050565b6000600254905090565b6000600960019054906101000a900460ff16151515610a3157600080fd5b610a3c84848461124b565b90509392505050565b600560009054906101000a900460ff1681565b6000600a54905090565b6000600960019054906101000a900460ff16151515610a8057600080fd5b610a8a8383611368565b905092915050565b610aa2610a9d61141b565b610cf5565b1515610b3c576040517f08c379a00000000000000000000000000000000000000000000000000000000081526004018080602001828103825260308152602001807f506175736572526f6c653a2063616c6c657220646f6573206e6f74206861766581526020017f207468652050617573657220726f6c650000000000000000000000000000000081525060400191505060405180910390fd5b600960019054906101000a900460ff161515610b5757600080fd5b600960009054906101000a900460ff161515610b7257600080fd5b6000600960016101000a81548160ff0219169083151502179055507f5db9ee0a495bf2e6ff9c91a7834c1ba4fdd244a5e8aa4e537bd38aeae4b073aa33604051808273ffffffffffffffffffffffffffffffffffffffff1673ffffffffffffffffffffffffffffffffffffffff16815260200191505060405180910390a1565b6000610c04610bff61141b565b611189565b1515610c9e576040517f08c379a00000000000000000000000000000000000000000000000000000000081526004018080602001828103825260308152602001807f4d696e746572526f6c653a2063616c6c657220646f6573206e6f74206861766581526020017f20746865204d696e74657220726f6c650000000000000000000000000000000081525060400191505060405180910390fd5b600760009054906101000a900460ff161515610cb957600080fd5b610cc38383611423565b6001905092915050565b600560019054906101000a900460ff161515610ce857600080fd5b610cf23382611467565b50565b6000610d0b8260086116a890919063ffffffff16565b9050919050565b6000600960019054906101000a900460ff16905090565b610d39610d3461141b565b6117cb565b565b60008060008373ffffffffffffffffffffffffffffffffffffffff1673ffffffffffffffffffffffffffffffffffffffff168152602001908152602001600020549050919050565b600560019054906101000a900460ff161515610d9e57600080fd5b610da88282611825565b5050565b610dbc610db761141b565b610cf5565b1515610e56576040517f08c379a00000000000000000000000000000000000000000000000000000000081526004018080602001828103825260308152602001807f506175736572526f6c653a2063616c6c657220646f6573206e6f74206861766581526020017f207468652050617573657220726f6c650000000000000000000000000000000081525060400191505060405180910390fd5b610e5f81611938565b50565b610e72610e6d61141b565b610cf5565b1515610f0c576040517f08c379a00000000000000000000000000000000000000000000000000000000081526004018080602001828103825260308152602001807f506175736572526f6c653a2063616c6c657220646f6573206e6f74206861766581526020017f207468652050617573657220726f6c650000000000000000000000000000000081525060400191505060405180910390fd5b600960019054906101000a900460ff16151515610f2857600080fd5b600960009054906101000a900460ff161515610f4357600080fd5b6001600960016101000a81548160ff0219169083151502179055507f62e78cea01bee320cd4e420270b5ea74000d11b0c9f74754ebdbfc544b05a25833604051808273ffffffffffffffffffffffffffffffffffffffff1673ffffffffffffffffffffffffffffffffffffffff16815260200191505060405180910390a1565b60038054600181600116156101000203166002900480601f0160208091040260200160405190810160405280929190818152602001828054600181600116156101000203166002900480156110595780601f1061102e57610100808354040283529160200191611059565b820191906000526020600020905b81548152906001019060200180831161103c57829003601f168201915b505050505081565b61107161106c61141b565b611189565b151561110b576040517f08c379a00000000000000000000000000000000000000000000000000000000081526004018080602001828103825260308152602001807f4d696e746572526f6c653a2063616c6c657220646f6573206e6f74206861766581526020017f20746865204d696e74657220726f6c650000000000000000000000000000000081525060400191505060405180910390fd5b61111481611992565b50565b61112761112261141b565b6119ec565b565b6000600960019054906101000a900460ff1615151561114757600080fd5b6111518383611a46565b905092915050565b6000600960019054906101000a900460ff1615151561117757600080fd5b6111818383611b57565b905092915050565b600061119f8260066116a890919063ffffffff16565b9050919050565b6000600160008473ffffffffffffffffffffffffffffffffffffffff1673ffffffffffffffffffffffffffffffffffffffff16815260200190815260200160002060008373ffffffffffffffffffffffffffffffffffffffff1673ffffffffffffffffffffffffffffffffffffffff16815260200190815260200160002054905092915050565b600061124161123a61141b565b8484611b75565b6001905092915050565b6000611258848484611df6565b61135d8461126461141b565b61135885606060405190810160405280602881526020017f45524332303a207472616e7366657220616d6f756e742065786365656473206181526020017f6c6c6f77616e6365000000000000000000000000000000000000000000000000815250600160008b73ffffffffffffffffffffffffffffffffffffffff1673ffffffffffffffffffffffffffffffffffffffff168152602001908152602001600020600061130e61141b565b73ffffffffffffffffffffffffffffffffffffffff1673ffffffffffffffffffffffffffffffffffffffff1681526020019081526020016000205461217a9092919063ffffffff16565b611b75565b600190509392505050565b600061141161137561141b565b8461140c856001600061138661141b565b73ffffffffffffffffffffffffffffffffffffffff1673ffffffffffffffffffffffffffffffffffffffff16815260200190815260200160002060008973ffffffffffffffffffffffffffffffffffffffff1673ffffffffffffffffffffffffffffffffffffffff1681526020019081526020016000205461223c90919063ffffffff16565b611b75565b6001905092915050565b600033905090565b6000600a54111561145957600a5461144b8261143d610a09565b61223c90919063ffffffff16565b1115151561145857600080fd5b5b61146382826122c6565b5050565b600073ffffffffffffffffffffffffffffffffffffffff168273ffffffffffffffffffffffffffffffffffffffff1614151515611532576040517f08c379a00000000000000000000000000000000000000000000000000000000081526004018080602001828103825260218152602001807f45524332303a206275726e2066726f6d20746865207a65726f2061646472657381526020017f730000000000000000000000000000000000000000000000000000000000000081525060400191505060405180910390fd5b6115e181606060405190810160405280602281526020017f45524332303a206275726e20616d6f756e7420657863656564732062616c616e81526020017f63650000000000000000000000000000000000000000000000000000000000008152506000808673ffffffffffffffffffffffffffffffffffffffff1673ffffffffffffffffffffffffffffffffffffffff1681526020019081526020016000205461217a9092919063ffffffff16565b6000808473ffffffffffffffffffffffffffffffffffffffff1673ffffffffffffffffffffffffffffffffffffffff168152602001908152602001600020819055506116388160025461248390919063ffffffff16565b600281905550600073ffffffffffffffffffffffffffffffffffffffff168273ffffffffffffffffffffffffffffffffffffffff167fddf252ad1be2c89b69c2b068fc378daa952ba7f163c4a11628f55a4df523b3ef836040518082815260200191505060405180910390a35050565b60008073ffffffffffffffffffffffffffffffffffffffff168273ffffffffffffffffffffffffffffffffffffffff1614151515611774576040517f08c379a00000000000000000000000000000000000000000000000000000000081526004018080602001828103825260228152602001807f526f6c65733a206163636f756e7420697320746865207a65726f20616464726581526020017f737300000000000000000000000000000000000000000000000000000000000081525060400191505060405180910390fd5b8260000160008373ffffffffffffffffffffffffffffffffffffffff1673ffffffffffffffffffffffffffffffffffffffff16815260200190815260200160002060009054906101000a900460ff16905092915050565b6117df8160086124cd90919063ffffffff16565b8073ffffffffffffffffffffffffffffffffffffffff167fcd265ebaf09df2871cc7bd4133404a235ba12eff2041bb89d9c714a2621c7c7e60405160405180910390a250565b61182f8282611467565b6119348261183b61141b565b61192f84606060405190810160405280602481526020017f45524332303a206275726e20616d6f756e74206578636565647320616c6c6f7781526020017f616e636500000000000000000000000000000000000000000000000000000000815250600160008973ffffffffffffffffffffffffffffffffffffffff1673ffffffffffffffffffffffffffffffffffffffff16815260200190815260200160002060006118e561141b565b73ffffffffffffffffffffffffffffffffffffffff1673ffffffffffffffffffffffffffffffffffffffff1681526020019081526020016000205461217a9092919063ffffffff16565b611b75565b5050565b61194c8160086125cf90919063ffffffff16565b8073ffffffffffffffffffffffffffffffffffffffff167f6719d08c1888103bea251a4ed56406bd0c3e69723c8a1686e017e7bbe159b6f860405160405180910390a250565b6119a68160066125cf90919063ffffffff16565b8073ffffffffffffffffffffffffffffffffffffffff167f6ae172837ea30b801fbfcdd4108aa1d5bf8ff775444fd70256b44e6bf3dfc3f660405160405180910390a250565b611a008160066124cd90919063ffffffff16565b8073ffffffffffffffffffffffffffffffffffffffff167fe94479a9f7e1952cc78f2d6baab678adc1b772d936c6583def489e524cb6669260405160405180910390a250565b6000611b4d611a5361141b565b84611b4885606060405190810160405280602581526020017f45524332303a2064656372656173656420616c6c6f77616e63652062656c6f7781526020017f207a65726f00000000000000000000000000000000000000000000000000000081525060016000611ac161141b565b73ffffffffffffffffffffffffffffffffffffffff1673ffffffffffffffffffffffffffffffffffffffff16815260200190815260200160002060008a73ffffffffffffffffffffffffffffffffffffffff1673ffffffffffffffffffffffffffffffffffffffff1681526020019081526020016000205461217a9092919063ffffffff16565b611b75565b6001905092915050565b6000611b6b611b6461141b565b8484611df6565b6001905092915050565b600073ffffffffffffffffffffffffffffffffffffffff168373ffffffffffffffffffffffffffffffffffffffff1614151515611c40576040517f08c379a00000000000000000000000000000000000000000000000000000000081526004018080602001828103825260248152602001807f45524332303a20617070726f76652066726f6d20746865207a65726f2061646481526020017f726573730000000000000000000000000000000000000000000000000000000081525060400191505060405180910390fd5b600073ffffffffffffffffffffffffffffffffffffffff168273ffffffffffffffffffffffffffffffffffffffff1614151515611d0b576040517f08c379a00000000000000000000000000000000000000000000000000000000081526004018080602001828103825260228152602001807f45524332303a20617070726f766520746f20746865207a65726f20616464726581526020017f737300000000000000000000000000000000000000000000000000000000000081525060400191505060405180910390fd5b80600160008573ffffffffffffffffffffffffffffffffffffffff1673ffffffffffffffffffffffffffffffffffffffff16815260200190815260200160002060008473ffffffffffffffffffffffffffffffffffffffff1673ffffffffffffffffffffffffffffffffffffffff168152602001908152602001600020819055508173ffffffffffffffffffffffffffffffffffffffff168373ffffffffffffffffffffffffffffffffffffffff167f8c5be1e5ebec7d5bd14f71427d1e84f3dd0314c0f7b2291e5b200ac8c7c3b925836040518082815260200191505060405180910390a3505050565b600073ffffffffffffffffffffffffffffffffffffffff168373ffffffffffffffffffffffffffffffffffffffff1614151515611ec1576040517f08c379a00000000000000000000000000000000000000000000000000000000081526004018080602001828103825260258152602001807f45524332303a207472616e736665722066726f6d20746865207a65726f20616481526020017f647265737300000000000000000000000000000000000000000000000000000081525060400191505060405180910390fd5b600073ffffffffffffffffffffffffffffffffffffffff168273ffffffffffffffffffffffffffffffffffffffff1614151515611f8c576040517f08c379a00000000000000000000000000000000000000000000000000000000081526004018080602001828103825260238152602001807f45524332303a207472616e7366657220746f20746865207a65726f206164647281526020017f657373000000000000000000000000000000000000000000000000000000000081525060400191505060405180910390fd5b61203b81606060405190810160405280602681526020017f45524332303a207472616e7366657220616d6f756e742065786365656473206281526020017f616c616e636500000000000000000000000000000000000000000000000000008152506000808773ffffffffffffffffffffffffffffffffffffffff1673ffffffffffffffffffffffffffffffffffffffff1681526020019081526020016000205461217a9092919063ffffffff16565b6000808573ffffffffffffffffffffffffffffffffffffffff1673ffffffffffffffffffffffffffffffffffffffff168152602001908152602001600020819055506120ce816000808573ffffffffffffffffffffffffffffffffffffffff1673ffffffffffffffffffffffffffffffffffffffff1681526020019081526020016000205461223c90919063ffffffff16565b6000808473ffffffffffffffffffffffffffffffffffffffff1673ffffffffffffffffffffffffffffffffffffffff168152602001908152602001600020819055508173ffffffffffffffffffffffffffffffffffffffff168373ffffffffffffffffffffffffffffffffffffffff167fddf252ad1be2c89b69c2b068fc378daa952ba7f163c4a11628f55a4df523b3ef836040518082815260200191505060405180910390a3505050565b60008383111582901515612229576040517f08c379a00000000000000000000000000000000000000000000000000000000081526004018080602001828103825283818151815260200191508051906020019080838360005b838110156121ee5780820151818401526020810190506121d3565b50505050905090810190601f16801561221b5780820380516001836020036101000a031916815260200191505b509250505060405180910390fd5b5060008385039050809150509392505050565b60008082840190508381101515156122bc576040517f08c379a000000000000000000000000000000000000000000000000000000000815260040180806020018281038252601b8152602001807f536166654d6174683a206164646974696f6e206f766572666c6f77000000000081525060200191505060405180910390fd5b8091505092915050565b600073ffffffffffffffffffffffffffffffffffffffff168273ffffffffffffffffffffffffffffffffffffffff161415151561236b576040517f08c379a000000000000000000000000000000000000000000000000000000000815260040180806020018281038252601f8152602001807f45524332303a206d696e7420746f20746865207a65726f20616464726573730081525060200191505060405180910390fd5b6123808160025461223c90919063ffffffff16565b6002819055506123d7816000808573ffffffffffffffffffffffffffffffffffffffff1673ffffffffffffffffffffffffffffffffffffffff1681526020019081526020016000205461223c90919063ffffffff16565b6000808473ffffffffffffffffffffffffffffffffffffffff1673ffffffffffffffffffffffffffffffffffffffff168152602001908152602001600020819055508173ffffffffffffffffffffffffffffffffffffffff16600073ffffffffffffffffffffffffffffffffffffffff167fddf252ad1be2c89b69c2b068fc378daa952ba7f163c4a11628f55a4df523b3ef836040518082815260200191505060405180910390a35050565b60006124c583836040805190810160405280601e81526020017f536166654d6174683a207375627472616374696f6e206f766572666c6f77000081525061217a565b905092915050565b6124d782826116a8565b1515612571576040517f08c379a00000000000000000000000000000000000000000000000000000000081526004018080602001828103825260218152602001807f526f6c65733a206163636f756e7420646f6573206e6f74206861766520726f6c81526020017f650000000000000000000000000000000000000000000000000000000000000081525060400191505060405180910390fd5b60008260000160008373ffffffffffffffffffffffffffffffffffffffff1673ffffffffffffffffffffffffffffffffffffffff16815260200190815260200160002060006101000a81548160ff0219169083151502179055505050565b6125d982826116a8565b15151561264e576040517f08c379a000000000000000000000000000000000000000000000000000000000815260040180806020018281038252601f8152602001807f526f6c65733a206163636f756e7420616c72656164792068617320726f6c650081525060200191505060405180910390fd5b60018260000160008373ffffffffffffffffffffffffffffffffffffffff1673ffffffffffffffffffffffffffffffffffffffff16815260200190815260200160002060006101000a81548160ff021916908315150217905550505056fea165627a7a72305820558b707fd262582f096b7d8f66fb91b8000e055b455456c1570acd64e0efceb50029",
  "source": "pragma solidity 0.5.0;\n\nimport \"./ERC20Cappuccino.sol\";\nimport \"../node_modules/@openzeppelin/contracts/access/roles/MinterRole.sol\";\nimport \"../node_modules/@openzeppelin/contracts/access/roles/PauserRole.sol\";\n\n/**\n * @title Pausable\n * @dev Base contract which allows children to implement an emergency stop mechanism.\n */\ncontract Pausable is PauserRole {\n    event Paused(address account);\n    event Unpaused(address account);\n\n    bool private _pausableActive;\n    bool private _paused;\n\n    constructor () internal {\n        _paused = false;\n    }\n\n    /**\n     * @return true if the contract is paused, false otherwise.\n     */\n    function paused() public view returns (bool) {\n        return _paused;\n    }\n\n    /**\n     * @dev Modifier to make a function callable only when the contract is not paused.\n     */\n    modifier whenNotPaused() {\n        require(!_paused);\n        _;\n    }\n\n    /**\n     * @dev Modifier to make a function callable only when the contract is paused.\n     */\n    modifier whenPaused() {\n        require(_paused);\n        _;\n    }\n\n    /**\n     * @dev called by the owner to pause, triggers stopped state\n     */\n    function pause() public onlyPauser whenNotPaused whenPausableActive {\n        _paused = true;\n        emit Paused(msg.sender);\n    }\n\n    /**\n     * @dev called by the owner to unpause, returns to normal state\n     */\n    function unpause() public onlyPauser whenPaused whenPausableActive {\n        _paused = false;\n        emit Unpaused(msg.sender);\n    }\n\n    /**\n     * @dev Options to activate or deactivate Pausable ability\n     */\n\n    function _setPausableActive(bool _active) internal {\n        _pausableActive = _active;\n    }\n\n    modifier whenPausableActive() {\n        require(_pausableActive);\n        _;\n    }\n\n}\n\ncontract ERC20Burnable is ERC20Cappuccino {\n\n    bool private _burnableActive;\n\n    /**\n     * @dev Burns a specific amount of tokens.\n     * @param value The amount of token to be burned.\n     */\n    function burn(uint256 value) public whenBurnableActive {\n        _burn(msg.sender, value);\n    }\n\n    /**\n     * @dev Burns a specific amount of tokens from the target address and decrements allowance\n     * @param from address The address which you want to send tokens from\n     * @param value uint256 The amount of token to be burned\n     */\n    function burnFrom(address from, uint256 value) public whenBurnableActive {\n        _burnFrom(from, value);\n    }\n\n    /**\n     * @dev Options to activate or deactivate Burn ability\n     */\n\n    function _setBurnableActive(bool _active) internal {\n        _burnableActive = _active;\n    }\n\n    modifier whenBurnableActive() {\n        require(_burnableActive);\n        _;\n    }\n\n}\n\n/**\n * @title ERC20Mintable\n * @dev ERC20 minting logic\n */\ncontract ERC20Mintable is ERC20Cappuccino, MinterRole {\n\n    bool private _mintableActive;\n    /**\n     * @dev Function to mint tokens\n     * @param to The address that will receive the minted tokens.\n     * @param value The amount of tokens to mint.\n     * @return A boolean that indicates if the operation was successful.\n     */\n    function mint(address to, uint256 value) public onlyMinter whenMintableActive returns (bool) {\n        _mint(to, value);\n        return true;\n    }\n\n    /**\n     * @dev Options to activate or deactivate Burn ability\n     */\n\n    function _setMintableActive(bool _active) internal {\n        _mintableActive = _active;\n    }\n\n    modifier whenMintableActive() {\n        require(_mintableActive);\n        _;\n    }\n\n}\n\ncontract ERC20Mocha is ERC20Cappuccino, ERC20Burnable, ERC20Mintable, Pausable {\n\n    // maximum capital, if defined > 0\n    uint256 private _cap;\n\n    constructor (\n        address initialAccount, string memory _tokenSymbol, string memory _tokenName, uint256 initialBalance, uint256 cap,\n        bool _burnableOption, bool _mintableOption, bool _pausableOption\n    ) public\n        ERC20Cappuccino(initialAccount, _tokenSymbol, _tokenName, initialBalance) {\n\n        // we must add customer account as the first minter\n        if (!isMinter(initialAccount)) {\n            addMinter(initialAccount);\n        }\n\n        // add customer as pauser\n        if (!isPauser(initialAccount)) {\n            addPauser(initialAccount);\n        }\n\n        if (cap > 0) {\n            _cap = cap; // maximum capitalization limited\n        } else {\n            _cap = 0; // unlimited capitalization\n        }\n\n        // activate or deactivate options\n        _setBurnableActive(_burnableOption);\n        _setMintableActive(_mintableOption);\n        _setPausableActive(_pausableOption);\n\n    }\n\n    /**\n     * @return the cap for the token minting.\n     */\n    function cap() public view returns (uint256) {\n        return _cap;\n    }\n\n    /**\n     * limit the mint to a maximum cap only if cap is defined\n     */\n    function _mint(address account, uint256 value) internal {\n        if (_cap > 0) {\n            require(totalSupply().add(value) <= _cap);\n        }\n        super._mint(account, value);\n    }\n\n    /**\n     * Pausable options\n     */\n    function transfer(address to, uint256 value) public whenNotPaused returns (bool) {\n        return super.transfer(to, value);\n    }\n\n    function transferFrom(address from,address to, uint256 value) public whenNotPaused returns (bool) {\n        return super.transferFrom(from, to, value);\n    }\n\n    function approve(address spender, uint256 value) public whenNotPaused returns (bool) {\n        return super.approve(spender, value);\n    }\n\n    function increaseAllowance(address spender, uint addedValue) public whenNotPaused returns (bool success) {\n        return super.increaseAllowance(spender, addedValue);\n    }\n\n    function decreaseAllowance(address spender, uint subtractedValue) public whenNotPaused returns (bool success) {\n        return super.decreaseAllowance(spender, subtractedValue);\n    }\n\n}",
  "sourcePath": "/Users/media/Sites/smart-contracts/contracts/ERC20Mocha.sol",
  "compiler": {
    "name": "solc",
    "version": "0.5.0+commit.1d4f565a.Emscripten.clang"
  },
  "schemaVersion": "3.0.22",
  "updatedAt": "2020-01-31T16:50:38.852Z",
  "networkType": "ethereum",
  "devdoc": {
    "methods": {
      "allowance(address,address)": {
        "details": "See {IERC20-allowance}."
      },
      "balanceOf(address)": {
        "details": "See {IERC20-balanceOf}."
      },
      "burn(uint256)": {
        "details": "Burns a specific amount of tokens.",
        "params": {
          "value": "The amount of token to be burned."
        }
      },
      "burnFrom(address,uint256)": {
        "details": "Burns a specific amount of tokens from the target address and decrements allowance",
        "params": {
          "from": "address The address which you want to send tokens from",
          "value": "uint256 The amount of token to be burned"
        }
      },
      "cap()": {
        "return": "the cap for the token minting."
      },
      "mint(address,uint256)": {
        "details": "Function to mint tokens",
        "params": {
          "to": "The address that will receive the minted tokens.",
          "value": "The amount of tokens to mint."
        },
        "return": "A boolean that indicates if the operation was successful."
      },
      "pause()": {
        "details": "called by the owner to pause, triggers stopped state"
      },
      "paused()": {
        "return": "true if the contract is paused, false otherwise."
      },
      "totalSupply()": {
        "details": "See {IERC20-totalSupply}."
      },
      "unpause()": {
        "details": "called by the owner to unpause, returns to normal state"
      }
    }
  },
  "userdoc": {
    "methods": {
      "transfer(address,uint256)": {
        "notice": "Pausable options"
      }
    }
  }
}